:100000000C945C000C9400000C9400000C94000014
:100010000C9400000C9400000C9400000C948900D7
:100020000C9400000C9400000C9400000C94000050
:100030000C9400000C9400000C9400000C94000040
:100040000C9400000C9400000C9400000C94000030
:100050000C940000000000003A0017002020004C23
:10006000434420434C4F434B003A000001002D4EC7
:10007000414E00494E46000080C008000400540074
:10008000030060025C00030063025C000300660280
:100090005C000A0069025F0002007302690002004E
:1000A0007502690002007702690001007D026C00A0
:1000B0000200810278000000F894EE27ECBBF1E02A
:1000C000FBBFEBBFE5BF8DE0A2E0BB27ED938A95B8
:1000D000E9F780E098E0A0E6ED930197E9F7EAE719
:1000E000F0E085919591009761F0A591B59105900B
:1000F0001590BF01F00105900D920197E1F7FB010A
:10010000F0CFEFE5EDBFE8E0EEBFC0E6D2E00C9443
:1001100015010A921A92FA926A937A938A939A93A1
:10012000AA93BA93EA93FA93EFB7EA93F20131965E
:100130002F01E8E1F0E0EA15FB0549F4E3E00E9455
:100140002D02A0E6B2E00E94ED01AA24BB24ECE35C
:10015000F0E0E815F90561F4E6E00E942D02A3E65F
:10016000B2E00E94ED0188249924F50131965F01E7
:10017000ECE3F0E0E615F70561F4E9E00E942D02FA
:10018000A6E6B2E00E94ED0166247724F4013196E0
:100190004F01EAE0F0E0E415F50529F44424552484
:1001A000F30131963F015A924A92A9E7B2E00E94C8
:1001B0006F01ECE00E942D02A9E7B2E00E94ED0180
:1001C0007A926A92AAE7B2E00E946F01E9E00E9487
:1001D0002D02AAE7B2E00E94ED019A928A92ABE763
:1001E000B2E00E946F01E6E00E942D02ABE7B2E0B0
:1001F0000E94ED01BA92AA92ACE7B2E00E946F01B0
:10020000E3E00E942D02ACE7B2E00E94ED01E9912B
:10021000EFBFF991E991B991A9919991899179915A
:100220006991F990199009901895E0E0EABBEBBB51
:10023000E7BBE8BBE4BBE5BBE1BBE2BBE3BFE2BFBE
:10024000ECBFEFBD0E943102E0E0EBBDEABDE9BDCD
:10025000E8BDE2BDE5BDE4BDE3BDE9BFE5BFE4BF88
:10026000EAB9E0E8E8B9E0E0E0BFE6B9EDB9E6BF39
:10027000EFEFE4BBE0E0E5BBEFBDECE00E94310254
:10028000ECE0EBBDE5E3EABDE0E0E9BDE8BDE0E1BF
:10029000E9BF7894A0E10E94FE010E94CA01E3E058
:1002A000EA93A0E00E94BD01A9E6B2E00E94ED0140
:1002B000EBE00E942D02A3E7B2E00E94ED01E5E031
:1002C0000E942D02A5E7B2E00E94ED01E8E00E9445
:1002D0002D02A7E7B2E00E94ED01FFCFFFCFBA9356
:1002E000AA93A991B991E991F99130962AF4E095F0
:1002F000F09531966DE26D93E89480E197E20DD030
:1003000088EE93E00AD084E6992707D08AE005D0EA
:100310006E2F10D066276C9308956627E817F907AB
:1003200020F06395E81BF90BC9F7662311F416F06A
:1003300008956894605D6D930895AA93E5B3EF7096
:10034000AE2FE881E07FEA2BE5BB8DE08A95F1F7DF
:10035000AA9A8DE08A95F1F7AA988DE08A95F1F72F
:100360007AC0AA93A881E9DFE881E295E883A881B1
:10037000E4DF85E88A95F1F76EC0AA93E881F0E0A2
:10038000EF57FD4FE081A981AE0FEBDFD980C88028
:1003900022960895A2E00E943802ACE0E2DFA1E0DC
:1003A0000E943802E0E0CE2EDE2E0895AA93A881A6
:1003B000AA3021F0E0918502DE1648F0E0E0EA93F1
:1003C000C394AC2DDADFA881AA3009F444C0D394D9
:1003D000A89AA881C6DFA8983EC0BA93AA931A9398
:1003E000A981BA81ED91A983BA831E2FE03019F05B
:1003F000A12FDCDFF5CF188123960895AA93E4B3EB
:10040000E06FE4BBA29AA09AA19AAA98A898A9988A
:10041000E881E0938502E058E0938302E881E054AC
:10042000E0938402A4E1B0E00E9446020E943E02F2
:100430000E943E020E943E02A0E27FDF88EC90E034
:100440000197F1F7A8E28DDFA4E08BDFA5E889DF53
:10045000A6E087DF9FDF21960895EA93A1E00C9440
:10046000BD01EEBDE0E0EDBDECBDE7BDE6BD08952C
:100470000E94B101A3E0B0E00C944602A0E30E9408
:100480009D0188EC90E00197F1F70895109639F0FE
:1004900080ED97E00197F1F7A8951197C9F70895B6
:00000001FF
