:0E0000000C9446000C9400000C9400000C942C
:10000E0000000C9400000C9400000C9400000C9462
:10001E0000000C9400000C9400000C9400000C9452
:10002E0000000C9400000C9400000C9400000C9442
:10003E0000000C9400000C9400000C9400000C9432
:10004E0000000C9400001027E80364000A00010071
:10005E0000100001100001005A6168726120486FA3
:10006E00737365696E69000080C00F0060026600E0
:10007E000F006F02660002007E0276000000F89408
:10008E00EE27ECBBF1E0FBBFEBBFE5BF8DE0A2E0DE
:10009E00BB27ED938A95E9F780E098E0A0E6ED9313
:1000AE000197E9F7E8E7F0E085919591009761F007
:1000BE00A591B59105901590BF01F00105900D9297
:1000CE000197E1F7FB01F0CFEFE5EDBFE8E0EEBF02
:1000DE00C0E6D2E00C947300E0E0EBBBEABBE8BBF9
:1000EE00E7BBE5BBE4BBE2BBE1BBE3BFE2BFECBFFA
:1000FE00EFBDEEBDEDBDECBDE7BDE6BDEBBDEABDB2
:10010E00E9BDE8BDE2BDE5BDE4BDE3BDE5BFE4BFCD
:10011E00E9BFEBB9E8E1EAB9E6E8E0BDE0E0E0BD51
:10012E00E3E3E9B9E0E8E8B9E0E0E0BFE6B9EDB94C
:10013E00E6BFA0E198D00E9468014E2EA42D02D0F9
:10014E00FACFFFCFAA931A930A9308E110E0AA817F
:10015E000E946C01AA81A33411F457D023C0AA8146
:10016E00AE3449F40E948101A0E6B2E00E94730110
:10017E000E94810117C0AA81A33669F4A3E60E94EA
:10018E006C010024001601062CF40E94810101501E
:10019E001040F7CF07C0AA81AD3421F436D0AFE6B8
:1001AE00B2E056D0198108810C947F01AA93E5B371
:1001BE00EF70AE2FE881E07FEA2BE5BB8DE08A95EC
:1001CE00F1F7AA9A8DE08A95F1F7AA988DE08A95B3
:1001DE00F1F70C947101AA93A881E8DFE881E2950A
:1001EE00E883A881E3DF85E88A95F1F70C94710125
:1001FE00AA93E881F0E0E258FD4FE081A981AE0FAD
:10020E00EADF7980688022960895A2E00E94870135
:10021E00ACE0E1DFA1E00E948701E0E06E2E7E2ED1
:10022E000895AA93A881AA3011F0791450F0E0E055
:10023E00EA936394A62DDCDFA881AA3011F40C9406
:10024E0071017394A89AA881C6DFA8980C947101C5
:10025E00BA93AA931A930E948D0119F0A12FE1DF90
:10026E00FACF0C947E01AA93E4B3E06FE4BBA29A9A
:10027E00A09AA19AAA98A898A9989880E881E0587F
:10028E00E0938002E881E054E0938102A4E1B0E0C3
:10029E000E949D010E9495010E9495010E94950168
:1002AE00A0E284DF88EC90E00197F1F7A8E293DFFB
:1002BE00A4E091DFA5E88FDFA6E08DDFA6DF0C942A
:1002CE0071015F9BFECFECB10895AA935D9BFECFAB
:1002DE00E881ECB921960895BA93AA931A930E94D5
:1002EE008D0119F0A12FF1DFFACFAAE0EEDF188110
:1002FE0023960895AAE00E946C01ADE00C946C0167
:10030E000E94F200A3E0B0E00C949D01A981BA8195
:10031E00ED91A983BA831E2FE0300895A0E30E94C9
:10032E00DD0088EC90E00197F1F70895109639F012
:10033E0080ED97E00197F1F7A8951197C9F7089509
:00000001FF
