:020000000C945E
:1000020052000C9400000C9400000C9400000C941C
:1000120000000C9400000C9400000C9400000C945E
:1000220000000C9400000C9400000C9400000C944E
:1000320000000C9400000C9400000C9400000C943E
:1000420000000C9400000C9400000C9400000C942E
:1000520000001027E80364000A00010000100001FC
:100062001000010000003031323334353637383970
:100072004142434445460D0A20496E20746865207A
:100082006E616D65206F6620476F640D0A00010086
:100092000700660010007B0268001800600278000A
:1000A2000000F894EE27ECBBF1E0FBBFEBBFE5BF2D
:1000B2008DE0A2E0BB27ED938A95E9F780E098E016
:1000C200A0E6ED930197E9F7E0E9F0E085919591DB
:1000D200009761F0A591B59105901590BF01F001CF
:1000E20005900D920197E1F7FB01F0CFEFE5EDBF2F
:1000F200E8E0EEBFC0E6D2E00C947F00E0E0E4BBB3
:10010200EFEFE5BBE1BBE0E0E2BBE3BFE2BFECBF88
:10011200EFBDEEBDEDBDECBDE7BDE6BDEBBDEABD9D
:10012200E9BDE8BDE2BDE5BDE4BDE3BDE9BFE5BFB4
:10013200E4BFEBB9E8E1EAB9E6E8E0BDE0E0E0BD42
:10014200E3E3E9B9E0E8E8B9E0E0E0BFE6B9EDB938
:10015200E6BF772039F4A0E6B2E03AD0E1E07E2EA5
:100162000E9487020E948702F4CFFFCFBA93AA931C
:100172001A930A9301E010E0E0E3E0937802E0933F
:100182007902E0E0E0937A02EA81FB813097E1F0C4
:100192002297EC81FD81AFE0B0E00E94EB02E883A0
:1001A200F983D801A858BD4FE558FD4FE081EC9383
:1001B20001501040AC81BD81E0E1F0E00E94E60216
:1001C200EC83FD832296E0CF19810881249608955D
:1001D200BA93AA931A9310E010E0A981BA81EE278C
:1001E200A10FBE1FEC91E03049F0A981BA81EE2740
:1001F200A10FBE1FAC9104D01F5FEFCF188112C0B8
:10020200AA935D9BFECFE881ECB921960895BA933B
:10021200AA93AA81F5DFA881B981ED91FD9131966A
:10022200FE93EE9323960895BA93AA9326970E947B
:100232000B0310E0AC85BD85E0E0F0E0ED93FC93AC
:10024200EA89FB893196EA8BFB8B3197E4912E2F59
:10025200E03009F415C1E12FE03039F4253211F410
:1002620011E002C00E949C020AC1E130A9F42532C9
:1002720019F40E949C0202C112E040E000E02D321B
:1002820011F401E0FCC02B3211F44BE2F8C0203231
:1002920011F440E2F4C002C0E23039F450E013E05D
:1002A200203311F40068EBC003C0E33009F0E7C06B
:1002B200203310F02A3308F007C0AAE05A9F502DCD
:1002C200E22FE0535E0FDBC0E22FE33649F40E94D7
:1002D200A302E889F989A481AA930E94A902CEC047
:1002E200E33741F40E94A3020E94AF020E946E0211
:1002F2001E2F0AC0E03761F40E94A3020E94AF02DF
:100302000E947A021E2F086002600F7730E034C02C
:10031200E43611F0E93611F4046002C0E53731F435
:10032200E4E5F0E0EE83FF8315E00CC0E83511F45C
:10033200086003C0E83709F0A1C0EEE5F0E0EE8303
:10034200FF8314E002FF14C00E94A3020E94B902BC
:10035200AB85AA233AF4EA85FB850E94CF02EA879D
:10036200FB874DE2403011F01F5F01C00B7F04C0DC
:100372000E94A3020E94B90200FD11C0151778F471
:1003820007FF08C002FF04C00B7F242F115001C0D9
:1003920020E301C020E20E949C025150EFCF312F96
:1003A20001FF17C03030A1F003FF06C0EE81FF81CC
:1003B2002591EE83FF8305C0AE81BF812D91AE836F
:1003C200BF830E949C02503009F051503150EACF55
:1003D2004BC020E3EE81FF810E940703E887F98783
:1003E200EE81FF813296EE83FF83E885F985AA8547
:1003F200BB85AE17BF0750F02F5FA885B985EA8588
:10040200FB85EA1BFB0BEA87FB87EFCF2A3328F039
:1004120003FF02C0295F01C0295D04FD1AC0213318
:1004220020F4A885B985119709F409C0531710F073
:1004320000FF01C013C020E207FF0BC020E30061F0
:1004420002FF07C00B7F4A930E94A902503009F0B5
:1004520051500E949C02503009F051503150A885F1
:10046200B985129708F0B5CF00FF08C0503031F0BF
:100472005150E0E2EA930E94A902F8CF10E0E0CEE8
:10048200AC85BD850E9403030E9412036496089501
:10049200FF92F82E26971A930A93DE0114960E9471
:1004A200CB028D01E0E0EC83ED83EE83EF83DE018E
:1004B20018960E94CB020E940303FA93EA931A93BE
:1004C2000A93E8E0F1E0FA93EA93DE011896ACDED3
:1004D200198108812896FF900895BA93AA93A99149
:1004E200B991EE27FF276D91662311F03196FBCF6C
:1004F2000895BA93AA93AA27BB27E991F991059087
:10050200002011F01196FBCFFD01089543B255244E
:10051200D2010E94B700A8E7B2E00E94E900EDE82C
:10052200F0E0FA93EA9380E00E9449022296A8EE54
:10053200B3E00C94C1022A93AD85BE85EF85F8899C
:1005420009950895E889F9893497E88BF98B08951C
:10055200AD85BE85EF85F88909950895A889B98981
:1005620014960E940303EE83FF83AE81BF81089538
:10057200A889B98914960E940303EA87FB87089524
:10058200109639F080ED97E00197F1F7A895119751
:10059200C9F708950024AF0DB01D0895F195E195B6
:1005A200F04008950024112490E1AA0FBB1F001C03
:1005B200111C0E1A1F0A18F40E0E1F1E01C0A16094
:1005C2009A9599F7FD01D00108950ED0EBDF0EF454
:1005D200E5DF0895E894F7FF02C0E0DF6894EA23BC
:1005E200FB230EF4DBDF0895E894F7FF02C0D6DFA9
:1005F2006894B7FF06C0A095B095119600F80394D1
:1006020000FA0895ED91FC91119708950590F491E7
:10061200E02D08955A934A933A932A931A930A9390
:1006220008955D814C813B812A8119810881089559
:00000001FF
