:0C0000000C9467000C9400000C940000AD
:10000C000C9400000C9400000C9400000C94000064
:10001C000C9400000C9400000C9400000C94000054
:10002C000C9400000C9400000C9400000C94000044
:10003C000C9400000C9400000C9400000C94000034
:10004C000C9400000C9400000000FFFFFFFF000068
:10005C00000000000100020003000400050006007F
:10006C00070008000900303132333435363738395F
:10007C004B455950414420414E44204C4344005080
:10008C00524F4A454354000080C001002D4E414E52
:10009C0000494E4600000A000400540013008F0271
:1000AC005E000A00A90272000F0060027C000800CA
:1000BC006F028B000200B40294000100BB02960098
:1000CC000000F894EE27ECBBF1E0FBBFEBBFE5BF03
:1000DC008DE0A2E0BB27ED938A95E9F780E098E0EC
:1000EC00A0E6ED930197E9F7E2EAF0E085919591AE
:1000FC00009761F0A591B59105901590BF01F001A5
:10010C0005900D920197E1F7FB01F0CFEFE5EDBF04
:10011C00E8E0EEBFC0E6D2E00C949400E0E0EABB6D
:10012C00EBBBE7BBE8BBEFEFE4BBE0E0E5BBEFE02C
:10013C00E1BBE0E0E2BBE3BFE2BFECBFEFBDEEBD75
:10014C00EDBDECBDE7BDE6BDEBBDEABDE9BDE8BD6F
:10015C00E2BDE5BDE4BDE3BDE9BFE5BFE4BFEAB97F
:10016C00E0E8E8B9E0E0E0BFE6B9EDB9E6BFA0E150
:10017C000E94C9020E948A02E1E0EA93A0E0B3D196
:10018C00A0E6B2E00E94B802E5E0EA93A1E0ABD1B0
:10019C00AFE6B2E00E94B802A0EDB7E00E943303D4
:1001AC00B3D12CD15E2EA52D02D0FBCFFFCFAA93BD
:1001BC00A881AF3F09F421C121D1EF3FE9F7EFEF5F
:1001CC00FFEFE615F70511F466247724EFEFFFEF48
:1001DC00E615F70541F0E815F90529F4E1E0F0E042
:1001EC00EA15FB0509F002C088249924A4E1B0E0CB
:1001FC000E943303A881AA3031F4A5E20E94F802D0
:10020C00E5E24E2EFAC0A881AB3031F4AAE20E948E
:10021C00F802EAE24E2EF1C0A881AD3031F4ADE225
:10022C000E94F802EDE24E2EE8C0A881AC3031F409
:10023C00ABE20E94F802EBE24E2EDFC0A881AE309A
:10024C0009F0A5C0A0917702B0917802119731F412
:10025C00F301AFEFBFEF0E9449033F01A091790278
:10026C00B0917A02119731F4F401AFEFBFEF0E9415
:10027C0049034F01ADE356D1E5E2E41529F4F4014D
:10028C00D3010E94610315C0EAE2E41529F4F401DC
:10029C00D3010E9449030DC0EDE2E41521F4F301F2
:1002AC00E819F90906C0EBE2E41539F4F401E60D9E
:1002BC00F71DE093A702F093A802E0E0E093A502FB
:1002CC00E093A602A091A802AA236AF4E1E0F0E070
:1002DC006F01E091A702F091A8020E943D03E09308
:1002EC00A702F093A802E0E0E093A302E093A4023B
:1002FC00A091A302B091A4021B972CF50E94FE02C0
:10030C00EA0FFB1FBF010E9407030E946603DB017B
:10031C00ED93FC930E9407030E946103E093A702F4
:10032C00F093A802309779F0A5EAB2E0ED91FD9137
:10033C003196FE93EE93A3EAB2E0ED91FD913196E6
:10034C00FE93EE93D5CFE1E0F0E0EC15FD0511F452
:10035C00ADE2E8D0E091A502F091A602E093A302F1
:10036C00F093A402A091A402AA2382F00E94FE02A0
:10037C000E940E03E755FD4FA081D4D0A3EAB2E052
:10038C00ED91FD913197FE93EE93ECCF36C0A881A1
:10039C00AF3001F5B9D0E0E0EA93A0E0A4D0EFEFE4
:1003AC00FFEF3F014F01AA24BB244424E0E0E0937B
:1003BC00A702E093A802E093A502E093A602CC2446
:1003CC00DD24E0937702E0937802E0937902E093E6
:1003DC007A0213C0A881A05DA5D00A2C0B2839F491
:1003EC00F3010E941303E00DF11D3F0106C0F4015F
:1003FC000E941303E00DF11D4F01F2C01A931FEF81
:10040C00909A91980E941F03849B02C017E00AC027
:10041C00859B02C018E006C0869B02C019E002C092
:10042C0087991AE09098919A0E941F03849B02C0AE
:10043C0014E00AC0859B02C015E006C0869B02C072
:10044C0016E002C087991BE090989198929A939825
:10045C00A5E0B0E00E943303849B02C011E00AC007
:10046C00859B02C012E006C0869B02C013E002C04E
:10047C0087991DE0909891989298939AA5E0B0E096
:10048C000E943303849B02C01FE00AC0859B02C0FC
:10049C0010E006C0869B02C01EE002C087991CE0DB
:1004AC00E12F19910895AA93E5B3EF70AE2FE8816F
:1004BC00E07FEA2BE5BB8DE08A95F1F7AA9A8DE0F7
:1004CC008A95F1F7AA988DE08A95F1F789C0AA93DD
:1004DC00A881E9DFE881E295E883A881E4DF85E87B
:1004EC008A95F1F77DC0AA93E881F0E0EC54FD4FBA
:1004FC00E081A981AE0FEBDFE981E093B802E881DE
:10050C00E093B90222960895A2E00E942503ACE084
:10051C00DEDFA1E00E942503E0E0E093B902E09366
:10052C00B8020895AA93A881AA3031F0E091BA02DA
:10053C00A091B802AE1760F0E0E0EA93A091B90286
:10054C00AF5FA093B902CFDFA881AA3009F448C0ED
:10055C00E091B802EF5FE093B802A89AA881B7DFE8
:10056C00A8983EC0BA93AA931A93A981BA81ED9127
:10057C00A983BA831E2FE03019F0A12FD3DFF5CF5A
:10058C00188123960895AA93E4B3E06FE4BBA29A72
:10059C00A09AA19AAA98A898A998E881E093BA027F
:1005AC00E058E093B602E881E054E093B702A4E18E
:1005BC00B0E00E9433030E942B030E942B030E9485
:1005CC002B03A0E270DF88EC90E00197F1F7A8E232
:1005DC007EDFA4E07CDFA5E87ADFA6E078DF94DF9D
:1005EC00219608950E949802E1E0F0E05F010895E1
:1005FC00E091A302F091A402ABE7B2E0EE0FFF1F73
:10060C000895A091A702B091A802EAE0F0E0089545
:10061C00AE0FBF1F0E9482030895AAE0B0E00E94B3
:10062C0049030F01E881AFE8B2E0F0E0EE0FFF1FE5
:10063C00EFCF92989398A5E0B0E00C9433030E940E
:10064C006D02A3E0B0E00C943303A0E30E945902C6
:10065C0088EC90E00197F1F70895109639F080ED51
:10066C0097E00197F1F7A8951197C9F70895F195BF
:10067C00E195F0400895FA9FF02DEB9FF00DEA9F65
:10068C00E02DF10D08952AD0F6DF0EF4F0DF089579
:10069C000024112490E1AA0FBB1F001C111C0E1A80
:1006AC001F0A18F40E0E1F1E01C0A1609A9599F72F
:1006BC00FD01D001089512D0EBDF0EF4D8DF0895C0
:1006CC00E894B7FF04C0A095B09511966894F7FD17
:1006DC00CEDFDEDFFD010EF4CADF0895E894F7FFEC
:1006EC0002C0C5DF6894B7FF06C0A095B0951196FF
:1006FC0000F8039400FA0895ED91FC911197089578
:00000001FF
