:020000000C945E
:1000020064000C9400000C9400000C9400000C940A
:1000120000000C9400000C9400000C9400000C945E
:1000220000000C9400000C9400000C9400000C944E
:1000320000000C9400000C9400000C9400000C943E
:1000420000000C9400000C9400000C9400000C942E
:10005200000000000000000000000000000001009D
:100062000200030004000500060007000800090062
:10007200FFFFFFFF303132333435363738395745D9
:100082004C434F4D450080C001002D4E414E00496A
:100092004E4600000A000400540013007C025E0079
:1000A2000200960272000200980274000A009A028C
:1000B20076000800600280000200A50288000100AC
:1000C200AC028A000000F894EE27ECBBF1E0FBBF23
:1000D200EBBFE5BF8DE0A2E0BB27ED938A95E9F780
:1000E20080E098E0A0E6ED930197E9F7E6E9F0E019
:1000F20085919591009761F0A591B5910590159024
:10010200BF01F00105900D920197E1F7FB01F0CFDD
:10011200EFE5EDBFE8E0EEBFC0E6D2E00C9491005F
:10012200A0E10E94AA020E946B02E5E0EA93A0E02D
:100132000E945A02A0E6B2E00E949902ACEDB5E03C
:100142000E9436030E946B023FD15E2EA52D02D083
:10015200FBCFFFCFAA93A881AF3F09F434C134D1BA
:10016200EF3FE9F70E94D90229F4E0E0E09396021A
:10017200E09397020E94D90269F0A0919802B0918F
:100182009902AF3FEFEFBE0729F4E1E0F0E0E61598
:10019200F70509F005C0E0E0E0939802E0939902C8
:1001A200A4E1B0E00E943603A881AA3031F4A5E2AE
:1001B2000E94E102E5E24E2E06C1A881AB3031F485
:1001C200AAE20E94E102EAE24E2EFDC0A881AD3011
:1001D20031F4ADE20E94E102EDE24E2EF4C0A881BC
:1001E200AC3031F4ABE20E94E102EBE24E2EEBC006
:1001F200A881AE3009F0ADC0E1E0F0E0EA15FB0500
:1002020041F40E94E702AFEFBFEF0E944C030E944D
:10021200EC02E1E0F0E0EC15FD0541F40E94F10290
:10022200AFEFBFEF0E944C030E94F602ADE360D134
:10023200E5E2E41529F40E94FB020E9464031BC05C
:10024200EAE2E41529F40E94FB020E944C0313C067
:10025200EDE2E41549F4A0919802B09199020E944E
:10026200E702EA1BFB0B07C0EBE2E41541F40E9434
:10027200FB02EA0FFB1FE0939402F0939502E0E089
:10028200E0939202E0939302A0919502AA236AF46A
:10029200E1E0F0E04F01E0919402F09195020E94BA
:1002A2004003E0939402F0939502E0E0E093900221
:1002B200E0939102A0919002B09191021B972CF5CC
:1002C2000E940103EA0FFB1FBF010E940A030E9462
:1002D2006903DB01ED93FC930E940A030E9464030D
:1002E200E0939402F0939502309779F0A2E9B2E09C
:1002F200ED91FD913196FE93EE93A0E9B2E0ED917E
:10030200FD913196FE93EE93D5CFE1E0F0E0E81552
:10031200F90511F4ADE2ECD0E0919202F091930272
:10032200E0939002F0939102A0919102AA2382F0AD
:100332000E9401030E941103E656FD4FA081D8D00E
:10034200A0E9B2E0ED91FD913197FE93EE93ECCFEF
:100352003AC0A881AF3001F5BDD0E0E0EA93A0E059
:10036200A8D0EFEFFFEF0E94EC02EFEFFFEF0E9449
:10037200F602662477244424E0E0E0939402E093BA
:100382009502E0939202E093930288249924AA248E
:10039200BB24CC24DD2417C0A881A05DA9D0062CE3
:1003A200072849F40E94E7020E941603E00DF11D9E
:1003B2000E94EC0208C00E94F1020E941603E00DA6
:1003C200F11D0E94F602F2C01A931FEF909A9198C3
:1003D2000E942203849B02C017E00AC0859B02C0D0
:1003E20018E006C0869B02C019E002C087991AE095
:1003F2009098919A0E942203849B02C014E00AC042
:10040200859B02C015E006C0869B02C016E002C0B2
:1004120087991BE090989198929A9398A5E0B0E002
:100422000E943603849B02C011E00AC0859B02C071
:1004320012E006C0869B02C013E002C087991DE04D
:10044200909891989298939AA5E0B0E00E94360312
:10045200849B02C01FE00AC0859B02C010E006C058
:10046200869B02C01EE002C087991CE0E12F199111
:100472000895AA93E5B3EF70AE2FE881E07FEA2BEF
:10048200E5BB8DE08A95F1F7AA9A8DE08A95F1F79E
:10049200AA988DE08A95F1F789C0AA93A881E9DF2D
:1004A200E881E295E883A881E4DF85E88A95F1F79F
:1004B2007DC0AA93E881F0E0EB55FD4FE081A98170
:1004C200AE0FEBDFE981E093A902E881E093AA0293
:1004D20022960895A2E00E942803ACE0DEDFA1E0AC
:1004E2000E942803E0E0E093AA02E093A9020895A3
:1004F200AA93A881AA3031F0E091AB02A091A9029F
:10050200AE1760F0E0E0EA93A091AA02AF5FA09379
:10051200AA02CFDFA881AA3009F448C0E091A9025B
:10052200EF5FE093A902A89AA881B7DFA8983EC01E
:10053200BA93AA931A93A981BA81ED91A983BA8336
:100542001E2FE03019F0A12FD3DFF5CF18812396AB
:100552000895AA93E4B3E06FE4BBA29AA09AA19A89
:10056200AA98A898A998E881E093AB02E058E09392
:10057200A702E881E054E093A802A4E1B0E00E945F
:1005820036030E942E030E942E030E942E03A0E235
:1005920070DF88EC90E00197F1F7A8E27EDFA4E03B
:1005A2007CDFA5E87ADFA6E078DF94DF2196089564
:1005B200A0919602B0919702AF3FEFEFBE07089568
:1005C2000E947902E1E0F0E03F010895E091960295
:1005D200F09197020895E0939602F093970208959E
:1005E200E0919802F09199020895E0939802F093B5
:1005F20099020895F5DFA0919602B09197020895AD
:10060200E0919002F0919102A8E6B2E0EE0FFF1F96
:100612000895A0919402B0919502EAE0F0E0089565
:10062200AE0FBF1F0E9485030895AAE0B0E00E94AA
:100632004C030F01E881ACE7B2E0F0E0EE0FFF1FE0
:10064200EFCF92989398A5E0B0E00C9436030E9405
:100652004E02A3E0B0E00C943603A0E30E943A02FB
:1006620088EC90E00197F1F70895109639F080ED4B
:1006720097E00197F1F7A8951197C9F70895F195B9
:10068200E195F0400895FA9FF02DEB9FF00DEA9F5F
:10069200E02DF10D08952AD0F6DF0EF4F0DF089573
:1006A2000024112490E1AA0FBB1F001C111C0E1A7A
:1006B2001F0A18F40E0E1F1E01C0A1609A9599F729
:1006C200FD01D001089512D0EBDF0EF4D8DF0895BA
:1006D200E894B7FF04C0A095B09511966894F7FD11
:1006E200CEDFDEDFFD010EF4CADF0895E894F7FFE6
:1006F20002C0C5DF6894B7FF06C0A095B0951196F9
:1007020000F8039400FA0895ED91FC911197089571
:00000001FF
