:100000000C943A000C9400000C9400000C94000036
:100010000C9400000C9400000C9400000C94000060
:100020000C9400000C9400000C9400000C946700E9
:100030000C9400000C9400000C9400000C94000040
:100040000C9400000C9400000C9400000C94000030
:100050000C94000000003F065B4F666D7D077F6FCC
:10006000777C395E79710100050054001000600250
:1000700056000000F894EE27ECBBF1E0FBBFEBBFAD
:10008000E5BF8DE0A2E0BB27ED938A95E9F780E01C
:1000900098E0A0E6ED930197E9F7E6E6F0E08591B8
:1000A0009591009761F0A591B59105901590BF01CC
:1000B000F00105900D920197E1F7FB01F0CFEFE51C
:1000C000EDBFE8E0EEBFC0E6D2E00C94BD000A92BE
:1000D0001A929A93AA93BA93EA93FA93EFB7EA9390
:1000E0001A931FEFE52DA1E06FD01E2712BBE52D5F
:1000F000F0E0309719F4E0E0E5BB2CC0E130A0E07F
:10010000FA0719F4E0E0E5BB25C0E230A0E0FA0709
:1001100039F4A42DB0E0E4E6F0E071D048D01AC084
:10012000E330A0E0FA0741F4A42DB0E0EAE0F0E00B
:1001300066D0DF0141D00EC0E430A0E0FA0721F420
:10014000A42DBB2739D006C0E530A0E0FA0711F492
:10015000E0E0E5BBE52DF0E03196DF01E6E0F0E020
:1001600053D05E2E1991E991EFBFF991E991B991C0
:10017000A9919991199009901895E0E0EABBEFEFE9
:10018000EBBBE7BBE0E0E8BBEFEFE4BBE0E0E5BBE7
:10019000EFEFE1BBE0E0E2BBE3E0E3BFE0E0E2BFC2
:1001A000ECBFE1E0E9BF789449B2FECFFFCFE05A5F
:1001B000FD4FE081E5BB0895EAE0F0E025D0F7CF00
:1001C000F195E195F0400895EE230E2EEA2F19F0F7
:1001D000EE0F0A94E9F708950024112490E1AA0F84
:1001E000BB1F001C111C0E1A1F0A18F40E0E1F1E36
:1001F00001C0A1609A9599F7FD01D001089512D030
:10020000EBDF0EF4DDDF0895E894B7FF04C0B1958D
:10021000A195B0406894F7FDD3DFDEDFFD010EF459
:10022000CFDF0895E894F7FF02C0CADF6894B7FFF4
:1002300006C0B195A195B04000F8039400FA089566
:00000001FF
