:060000000C9451000C9469
:1000060000000C9400000C9400000C9400000C946A
:1000160000000C9400000C9497000C9400000C94C3
:1000260000000C9400000C9400000C9400000C944A
:1000360000000C9400000C9400000C9400000C943A
:1000460000000C9400000C9400000C940000333265
:100056003835303000304C434420436C6F636B00BE
:100066003A0001002D4E414E00494E46000080C028
:100076000800040054000A0060025C0002006A02E4
:10008600660002006C02660002006E026600010055
:10009600700268000200740274000000F894EE27F3
:1000A600ECBBF1E0FBBFEBBFE5BF8DE0A2E0BB27F9
:1000B600ED938A95E9F780E098E0A0E6ED93019745
:1000C600E9F7E6E7F0E085919591009761F0A59153
:1000D600B59105901590BF01F00105900D9201971D
:1000E600E1F7FB01F0CFEFE5EDBFE8E0EEBFC0E6DC
:1000F600D2E00C94D200BA93AA93AC81BD81D0977A
:1001060041F4E8810E94DA01AA810E94DE01A0E2A0
:1001160007C0E8810E94DA01AC810E94DE01AA8153
:100126000E94860126960895EA93EFB7EA93B39460
:10013600EAE3EB1581F5E0E3BE2E8394EAE3E815E6
:1001460051F5E0E38E2E9394E6E3E91521F5E0E31D
:100156009E2E6394EAE3E615F1F4E0E36E2E7394C3
:10016600E6E3E715C1F4E0E37E2E4394E2E3E5150A
:1001760019F4E4E3E41509F008C0E0E35E2E4E2E20
:100186007E2E6E2E9E2E8E2E06C0EAE3E41519F400
:10019600E0E34E2E5394E991EFBFE9911895E0E024
:1001A600EABBEBBBE7BBE8BBE4BBE5BBE1BBE2BB41
:1001B600E3BFE2BFECBFEFBDECE0EEBDE0E0EDBDBE
:1001C600ECBDE7BDE6BDECE0EBBDE5E3EABDE0E096
:1001D600E9BDE8BDE2BDE5BDE4BDE3BDE0E1E9BFE3
:1001E600E0E0E5BFE4BFEAB9E0E8E8B9E0E0E0BF97
:1001F600E6B9EDB9E6BFA0E10E94AC017894E4E06F
:10020600EA93A0E00E946D01A0E6B2E00E949B0185
:10021600E52DF0E0FA93EA93E42DF0E0FA93EA9301
:10022600A3E0B0E068DFE5E00E94DA01AAE6B2E00A
:100236000E949B01E72DF0E0FA93EA93E62DF0E0A9
:10024600FA93EA93A6E0B0E056DFE8E00E94DA010E
:10025600ACE6B2E00E949B01E92DF0E0FA93EA9346
:10026600E82DF0E0FA93EA93A9E0B0E044DFEBE092
:100276000E94DA01AEE6B2E00E949B01ECE00E9429
:10028600DA01AB2D0E948601A2E3B0E00E94F101E3
:10029600B6CFFFCFAA93E5B3EF70AE2FE881E07F2C
:1002A600EA2BE5BB8DE08A95F1F7AA9A8DE08A954F
:1002B600F1F7AA988DE08A95F1F777C0AA93A881FD
:1002C600E9DFE881E295E883A881E4DF85E88A959D
:1002D600F1F76BC0AA93E881F0E0EC58FD4FE0819E
:1002E600A981AE0FEBDFA980D88022960895A2E0FF
:1002F6000E94E301ACE0E2DFA1E00E94E301E0E05E
:10030600DE2EAE2E0895AA93A881AA3011F0AC1461
:1003160048F0E0E0EA93D394AD2DDCDFA881AA3063
:1003260009F443C0A394A89AA881C8DFA8983DC041
:10033600BA93AA931A93A981BA81ED91A983BA8334
:100346001E2FE03019F0A12FDEDFF5CF188123969E
:100356000895AA93E4B3E06FE4BBA29AA09AA19A87
:10036600AA98A898A998C880E881E058E0937602F0
:10037600E881E054E0937702A4E1B0E00E94F10145
:100386000E94E9010E94E9010E94E901A0E282DFE0
:1003960088EC90E00197F1F7A8E290DFA4E08EDF09
:1003A600A5E88CDFA6E08ADFA2DF21960895EA930E
:1003B600A1E00C946D010E948601E881EF5FF7CF02
:1003C6000E946101A3E0B0E00C94F101A0E30E9459
:1003D6004D0188EC90E00197F1F70895109639F0F9
:1003E60080ED97E00197F1F7A8951197C9F7089561
:00000001FF
