:0E0000000C9453000C9400000C9400000C941F
:10000E0000000C9400000C9400000C9400000C9462
:10001E0000000C9400000C9400000C9400000C9452
:10002E0000000C9400000C9400000C9400000C9442
:10003E0000000C9400000C9400000C9400000C9432
:10004E0000000C9400001027E80364000A00010071
:10005E00001000011000010054494D45203E2000C3
:10006E0044415445203E200032300049555354003F
:10007E0080C001002D4E414E00494E460000080042
:10008E0060026600080068026E00020079027E00BF
:10009E000100800280000000F894EE27ECBBF1E036
:1000AE00FBBFEBBFE5BF8DE0A2E0BB27ED938A95CA
:1000BE00E9F780E098E0A0E6ED930197E9F7ECE828
:1000CE00F0E085919591009761F0A591B59105901D
:1000DE001590BF01F00105900D920197E1F7FB011C
:1000EE00F0CFEFE5EDBFE8E0EEBFC0E6D2E00C9456
:1000FE0080000E947C02E0E0EA93EA93A0E085D0C3
:10010E00A4E151D100D1A0E6B2E02BD1E0E0EA9318
:10011E00A1E0E8D0A8E6B2E024D1E2E7F2E0FA935B
:10012E00EA93E3E7F2E0FA93EA93A4E7B2E086D02B
:10013E00E5E7F2E0FA93EA93E6E7F2E0FA93EA9360
:10014E00E7E7F2E0FA93EA93A8E7B2E090D0E7E0AF
:10015E00EA93A0E0C7D0E0917202F0E0FA93EA933E
:10016E00D2010E940902D2010E944402E091730260
:10017E00F0E0FA93EA93D3010E940902D3010E94A0
:10018E004402E0917402F0E0FA93EA93D4010E94E3
:10019E000902D401E6D0E7E0EA93A1E0A3D0E09112
:1001AE007602F0E0FA93EA93D5010E940902D50196
:1001BE000E944402E0917702F0E0FA93EA93D601AE
:1001CE000E940902D6010E944402A6E7B0E0D8D0F0
:1001DE00E0917802F0E0FA93EA93A0917002B09168
:1001EE0071020E940902A0917002B0917102B9D001
:1001FE00E0E0EA93A2E076D0A9E7B0E0C1D0A8EEA5
:10020E00B3E00E94CD027ECFFFCFAA93EA81E370C6
:10021E00EA83E981E03019F0EA81E061EA83E8815E
:10022E00E03019F0EA81E068EA830E944A02A7E012
:10023E000E94B502AA810E944F02B3C0BA93AA933C
:10024E000E944A02A0E00E944F020E9453020E94A6
:10025E005B020E9462020E946802AE2F0E94370269
:10026E00AC81BD81EC930E94900226960895BA93BC
:10027E00AA930E944A02A3E00E944F020E945302D8
:10028E00AE81BF81EC930E946202AC81BD81EC9382
:10029E000E9462020E9468020E945B020E9490020B
:1002AE0028960895AA93EBB3EF70AE2FE881E07F06
:1002BE00EA2BEBBB8DE08A95F1F7DA9A8DE08A9501
:1002CE00F1F7DA988DE08A95F1F79AC0AA93A88192
:1002DE00E9DFE881E295E883A881E4DF85E88A9585
:1002EE00F1F78EC0AA93E881F0E0E758FD4FE08168
:1002FE00A981AE0FEBDFE981E0937D02E881E09307
:10030E007E0222960895A2E00E946E02ACE0DEDF2D
:10031E00A1E00E946E02E0E0E0937E02E0937D0297
:10032E000895AA93A881AA3031F0E0917F02A0919E
:10033E007D02AE1760F0E0E0EA93A0917E02AF5F1F
:10034E00A0937E02CFDFA881AA3009F459C0E091B4
:10035E007D02EF5FE0937D02D89AA881B7DFD8982F
:10036E004FC0BA93AA931A93A981BA81ED91A9832A
:10037E00BA831E2FE03019F0A12FD3DFF5CF10C0B6
:10038E00BA93AA931A93E981FA813196E983FA8393
:10039E003197E4911E2FE03019F0A12FC2DFF3CF79
:1003AE00188123960895AA93EAB3E06FEABBD29A16
:1003BE00D09AD19ADA98D898D998E881E0937F02AA
:1003CE00E058E0937B02E881E054E0937C02A4E1E4
:1003DE00B0E00E94CD020E9474020E9474020E943C
:1003EE007402A0E25FDF88EC90E00197F1F7A8E2DB
:1003FE006DDFA4E06BDFA5E869DFA6E067DF83DFD2
:10040E0021960895BA93AA93A991B991E991F99178
:10041E0030962AF4E095F09531966DE26D93E8945E
:10042E0080E197E20DD088EE93E00AD084E699271A
:10043E0007D08AE005D06E2F10D066276C930895F2
:10044E006627E817F90720F06395E81BF90BC9F743
:10045E00662311F416F008956894605D6D93089507
:10046E00AA93E881E295EF70AE2FAA0FAA0FEA0FBA
:10047E00EE0FA991AF70EA0F08950E94B801ACE695
:10048E00B0E00C94C7010E948102A0ED0C94B5025D
:10049E000E94B5020C9490020E948102A1ED0E946E
:1004AE00B502A1E00C949A02AE2F0E943702A881E9
:1004BE00B981EC930895A1E00E949A02AE2F0C949C
:1004CE003702AA81BB81EC93A0E00C949A020E94A1
:1004DE006D01A3E0B0E00C94CD02A0E30E9459019F
:1004EE0088EC90E00197F1F70895A898A998A09A42
:1004FE00A19815C0A198A098EE270000999B089589
:10050E00989B089504D0A19A02D0A09AE1E06DE0E4
:10051E0007C0A19AA09A03D0A098F9DFA1986BE129
:10052E006A95F1F7089578E0A098F1DF989BFECFD9
:10053E00EEDF889499990894A09AF1DFEE1F7A95D0
:10054E0099F77A2F772311F4A19801C0A19ADFDFD2
:10055E00A098E5DFA09ADBDFA198D9CF78E0AA0FAB
:10056E0010F4A19801C0A19ADADFA098D0DF989B71
:10057E00FECFCDDFA09A7A9591F7A198C8DFA0980B
:10058E00CEDFE1E09999EE27A09AC1CF109639F00F
:10059E0080ED97E00197F1F7A8951197C9F70895A7
:00000001FF
