:0A0000000C9451000C9400000C94C5
:10000A0000000C9400000C9400000C9400000C9466
:10001A0000000C9400000C9400000C9400000C9456
:10002A0000000C9400000C9400000C9400000C9446
:10003A0000000C9400000C9400000C9400000C9436
:10004A0000000C9400000C9400001027E8036400E0
:10005A000A000100001000011000010000004C4DD0
:10006A0033352053656E736F720025640054656DD5
:10007A00703A0043000080C00200040066000C00D1
:10008A006002680006006C027700020072027D00BE
:10009A0002007E0280000000F894EE27ECBBF1E03B
:1000AA00FBBFEBBFE5BF8DE0A2E0BB27ED938A95CE
:1000BA00E9F780E098E0A0E6ED930197E9F7E2E836
:1000CA00F0E085919591009761F0A591B591059021
:1000DA001590BF01F00105900D920197E1F7FB0120
:1000EA00F0CFEFE5EDBFE8E0EEBFC0E6D2E00C945A
:1000FA008D00AA93E881E064E7B98BE18A95F1F76C
:10010A00369A349BFECF349AE4B1F5B10C94380395
:10011A00E0E0EABBEBBBE7BBE8BBE4BBE5BBE1BBAA
:10012A00E2BBE3BFE2BFECBFEFBDEEBDEDBDECBD90
:10013A00E7BDE6BDEBBDEABDE9BDE8BDE2BDE5BD93
:10014A00E4BDE3BDE9BFE5BFE4BFEAB9E0E8E8B969
:10015A00E0E4E7B9E5E8E6B9E0E0E0BFEDB9E6BF1B
:10016A00A0E10E940C030E94DA02E3E0EA93A0E015
:10017A000E94CD02A0E6B2E00E94FB02A0E0B9DF35
:10018A002F010E948D040E940104A3E2BBED89EFB6
:10019A009EE30E942F040E94CA032F01E4E7F2E0C3
:1001AA00FA93EA93E4E7F0E0FA93EA93F2010E9401
:1001BA008D040E949A0484E00E9479022896E9E05C
:1001CA000E945303A4E7B2E00E94FB02E3E00E940C
:1001DA005303ACE6B2E00E94FB02ECE00E94530338
:1001EA00AFED0E94E602EDE00E945303A2E7B2E0FF
:1001FA000E94FB02A4EFB1E00E949103B4CFFFCFAB
:10020A00BA93AA931A930A93AA81BB8112960E945F
:10021A009204309759F1AA81BB8114960E949204E4
:10022A008F01309761F00230E0E01E0798F0F80184
:10023A0031978F01AA81BB811496ED93FC93AA8111
:10024A00BB811296ED91FD913196FE93EE93319713
:10025A00AC81A083AA81BB810E949204FF232AF069
:10026A00ED91FD913196FE93EE9306C0AA81BB8172
:10027A00EFEFFFEFED93FC9319810881259608951E
:10028A00BA93AA9326970E949F0410E0AC85BD8575
:10029A00E0E0F0E0ED93FC93EA89FB893196EA8B82
:1002AA00FB8B3197E4912E2FE03009F415C1E12F31
:1002BA00E03039F4253211F411E002C00E945703EC
:1002CA000AC1E130A9F4253219F40E94570302C188
:1002DA0012E040E000E02D3211F401E0FCC02B32C4
:1002EA0011F44BE2F8C0203211F440E2F4C002C02B
:1002FA00E23039F450E013E0203311F40068EBC027
:10030A0003C0E33009F0E7C0203310F02A3308F0C5
:10031A0007C0AAE05A9F502DE22FE0535E0FDBC0C0
:10032A00E22FE33649F40E945E03E889F989A48141
:10033A00AA930E946403CEC0E33741F40E945E038D
:10034A000E946A030E943A031E2F0AC0E03761F432
:10035A000E945E030E946A030E9446031E2F0860E1
:10036A0002600F7730E034C0E43611F0E93611F458
:10037A00046002C0E53731F4E4E5F0E0EE83FF8380
:10038A0015E00CC0E83511F4086003C0E83709F03D
:10039A00A1C0EEE5F0E0EE83FF8314E002FF14C093
:1003AA000E945E030E947403AB85AA233AF4EA858D
:1003BA00FB850E948104EA87FB874DE2403011F0F9
:1003CA001F5F01C00B7F04C00E945E030E9474037A
:1003DA0000FD11C0151778F407FF08C002FF04C01A
:1003EA000B7F242F115001C020E301C020E20E949C
:1003FA0057035150EFCF312F01FF17C03030A1F012
:10040A0003FF06C0EE81FF812591EE83FF8305C0BD
:10041A00AE81BF812D91AE83BF830E9457035030B6
:10042A0009F051503150EACF4BC020E3EE81FF81F1
:10043A000E949604E887F987EE81FF813296EE835F
:10044A00FF83E885F985AA85BB85AE17BF0750F0FB
:10045A002F5FA885B985EA85FB85EA1BFB0BEA872E
:10046A00FB87EFCF2A3328F003FF02C0295F01C0C0
:10047A00295D04FD1AC0213320F4A885B985119796
:10048A0009F409C0531710F000FF01C013C020E29D
:10049A0007FF0BC020E3006102FF07C00B7F4A93EE
:1004AA000E946403503009F051500E9457035030A3
:1004BA0009F051503150A885B985129708F0B5CF87
:1004CA0000FF08C0503031F05150E0E2EA930E9438
:1004DA006403F8CF10E0E0CEAC85BD850E9492049B
:1004EA000E94A60464960895FF92F82E26970E9409
:1004FA00A1040E947C03309719F4EFEFFFEF23C0A9
:10050A00DE0116960E947D048D010E947C03EE8313
:10051A00FF83E0E0E887E987DE011A960E947D04FE
:10052A000E949204FA93EA931A930A93E5E0F1E09F
:10053A00FA93EA93DE011A96A3DE9F01AE81BF8188
:10054A00E0E0EC93F9010E94A8042A96FF9008952E
:10055A00AA93E5B3EF70AE2FE881E07FEA2BE5BB03
:10056A008DE08A95F1F7AA9A8DE08A95F1F7AA9813
:10057A008DE08A95F1F777C0AA93A881E9DFE8812F
:10058A00E295E883A881E4DF85E88A95F1F76BC0F4
:10059A00AA93E881F0E0E258FD4FE081A981AE0F0D
:1005AA00EBDF7980688022960895A2E00E94830397
:1005BA00ACE0E2DFA1E00E948303E0E06E2E7E2E33
:1005CA000895AA93A881AA3011F0791448F0E0E0BE
:1005DA00EA936394A62DDCDFA881AA3009F443C00C
:1005EA007394A89AA881C8DFA8983DC0BA93AA9321
:1005FA001A93A981BA81ED91A983BA831E2FE0309B
:10060A0019F0A12FDEDFF5CF188123960895AA935A
:10061A00E4B3E06FE4BBA29AA09AA19AAA98A89818
:10062A00A9989880E881E058E0938002E881E05434
:10063A00E0938102A4E1B0E00E9491030E94890341
:10064A000E9489030E948903A0E282DF88EC90E07D
:10065A000197F1F7A8E290DFA4E08EDFA5E88CDF2E
:10066A00A6E08ADFA2DF21960895BA93AA93A991F8
:10067A00B991EE27FF276D91662311F03196FBCFD2
:10068A000895BA93AA93AA27BB27E991F9910590ED
:10069A00002011F01196FBCFFD010895EA93A1E025
:1006AA000C94CD022A93AD85BE85EF85F88909950C
:1006BA000895E889F9893497E88BF98B0895AD850F
:1006CA00BE85EF85F88909950895A889B989149690
:1006DA000E949204EE83FF83AE81BF810895A889A8
:1006EA00B98914960E949204EA87FB870895DE016D
:1006FA001C960E947D040E94920408950E94C102E1
:10070A00A3E0B0E00C949103A0E30E94AD0288EC50
:10071A0090E00197F1F70895109639F080ED97E08F
:10072A000197F1F7A8951197C9F70895552342F44F
:10073A00503811F4E0FF04C03196691F791F6BF03D
:10074A0050E8572711F45F9373C05F3F31F0660F8B
:10075A00000C57956795752F08955F9300200AF04E
:10076A0073C06CC050E8192E1522880F991F95275F
:10077A00550F879550E8072E0522660F771F7527B4
:10078A00550F67950895689401C0E8945F93F2DF66
:10079A00703818F07F3F08F44BC056E1571BAAF493
:1007AA00519558300EF4593030F0EFEFFFEF6FEFFC
:1007BA007FE777F91AC077275523B9F0EE0FFF1FA5
:1007CA00661F771F5A95D1F710C07727583028F03F
:1007DA00EF2FF62F672F5850F9CF552331F0769522
:1007EA006795F795E7955A95D1F700200AF488D0CE
:1007FA005F910895689401C0E89430976040704012
:10080A00B1F0002426F0772312F4009479D0172E41
:10081A007EE1112032F07A95EE0FFF1F661F111C40
:10082A00F9CFEF2FF62F612D5F938ADF5F9108953D
:10083A00EE27FF27662777275F910895EFEFFFEFEF
:10084A006FE77FEF5F910895EFEFFFEF6FE77FE7C5
:10085A005F9108955F9386DF703851F3903841F3C2
:10086A0001240894791F23F41CF300203AF3ECCFF7
:10087A000F921F932F933F934F9311272227992764
:10088A00689FA0018F9F302D410D591F6B9F300D1E
:10089A00411D591F8E9F27D0BF9F25D06A9F23D005
:1008AA00BE9F1DD0AF9F1BD0AE9F110D291F391FB0
:1008BA00491F591FE32FF42F652F522F4F913F9154
:1008CA002F911F910F9066232AF0550FEE1FFF1FDD
:1008DA00661F02C073954BF229DF5F910895100DD0
:1008EA00211D391F02C0200D311D491F591F0895AE
:1008FA000024AF0DB01D0895F195E195F0400895DB
:10090A00F09560957095E195FF4F6F4F7F4F089571
:10091A006F2F660F660B762F0895ED91FC91119754
:10092A0008950590F491E02D08957A936A93FA93C5
:10093A00EA9308955A934A933A932A931A930A93F5
:10094A0008955D814C813B812A811981088108952E
:00000001FF
