:0A0000000C9438000C9400000C94DE
:10000A0000000C9400000C9400000C9400000C9466
:10001A0000000C9400000C9400000C9400000C9456
:10002A0065000C9400000C9400000C9400000C94E1
:10003A0000000C9400000C9400000C9400000C9436
:10004A0000000C9400000C9400003F065B4F666DA4
:10005A007D077F6F000000000000000000000A001A
:10006A00600254000000F894EE27ECBBF1E0FBBFFD
:10007A00EBBFE5BF8DE0A2E0BB27ED938A95E9F7D8
:10008A0080E098E0A0E6ED930197E9F7E8E6F0E072
:10009A0085919591009761F0A591B591059015907C
:1000AA00BF01F00105900D920197E1F7FB01F0CF36
:1000BA00EFE5EDBFE8E0EEBFC0E6D2E00C947800D1
:1000CA00EA93FA93EFB7EA93F20131962F01E3E04C
:1000DA00F0E0E415F50511F444245524E991EFBF45
:1000EA00F991E9911895E0E0E5BBEFEFE2BBE4BBDB
:1000FA00E7BBE0E0E1BBECE0E3BFE0E0E2BFE3E660
:10010A00ECBFE2E1E9BF7894299789E0A0E0B0E08A
:10011A00EEE5F0E078D0809B05C0EF81F885319656
:10012A00EF83F887819B05C0EF81F8853296EF83CC
:10013A00F887829B05C0EF81F8853496EF83F887AC
:10014A00839B05C0EF81F8853896EF83F887849BF7
:10015A0005C0EF81F8857096EF83F887859B05C007
:10016A00EF81F885B096EF83F887869B06C0EF810A
:10017A00F885E05CFF4FEF83F887879B06C0EF8125
:10018A00F885E058FF4FEF83F887EF81F8853097BD
:10019A00A9F034D052D0ED83FE83EB81FC81DE01DD
:1001AA00EA0FFB1FAD81A08329D034D0EF83F887F3
:1001BA00EB81FC813196EB83FC83E7CF042C052885
:1001CA0021F4E7EFE8BBE88111C0E1E0F0E0E415D3
:1001DA00F50521F4EBEFE8BBE98108C0E2E0F0E0C5
:1001EA00E415F50541F4EDEFE8BBEA81F0E0E05AE9
:1001FA00FD4FE081E5BB299687CFFFCFAF81B88558
:10020A00EAE0F0E00895AC0FBD1F05900D928A95C3
:10021A00E1F708950024112490E1AA0FBB1F001CE6
:10022A00111C0E1A1F0A18F40E0E1F1E01C0A1601F
:10023A009A9599F7FD01D0010895ECDFFD01089523
:00000001FF
