:080000000C9445000C94000073
:100008000C9400000C9400000C9400000C94000068
:100018000C9400000C9400000C9400000C94000058
:100028000C9400000C9400000C9400000C94000048
:100038000C9400000C9400000C9400000C94000038
:100048000C9400000C9400000C9400001027E803A6
:1000580064000A0001000010000110000100536153
:100068006C65682050617A68616E640080C00E001B
:10007800600266000E006E02660002007C027400D8
:100088000000F894EE27ECBBF1E0FBBFEBBFE5BF47
:100098008DE0A2E0BB27ED938A95E9F780E098E030
:1000A800A0E6ED930197E9F7E6E7F0E085919591F1
:1000B800009761F0A591B59105901590BF01F001E9
:1000C80005900D920197E1F7FB01F0CFEFE5EDBF49
:1000D800E8E0EEBFC0E6D2E00C947200E0E0EBB9D5
:1000E800E8E1EAB9E6E8E0BDE0E0E0BDE3E3E9B96C
:1000F800E0E8E8B9E0E0E0BFA0E199D00E9449015A
:100108004E2EA42D02D0FACFFFCFAA93A8810E9429
:100118004D01A881A33411F45CD02AC0A881AE3463
:1001280049F40E946201A0E6B2E00E9454010E94D4
:1001380062011EC0A881A336A1F42297E8E1E883F2
:10014800E0E0E983A881B9810E94880144F40E9413
:100158006201E881F9813197E883F983F3CF229628
:1001680007C0A881AD3421F434D0AEE6B2E054D053
:100178000C945201AA93E5B3EF70AE2FE881E07FAB
:10018800EA2BE5BB8DE08A95F1F7AA9A8DE08A956E
:10019800F1F7AA988DE08A95F1F70C945201AA9389
:1001A800A881E8DFE881E295E883A881E3DF85E8B4
:1001B8008A95F1F70C945201AA93E881F0E0E4588B
:1001C800FD4FE081A981AE0FEADF79806880229631
:1001D8000895A2E00E946801ACE0E1DFA1E00E947E
:1001E8006801E0E06E2E7E2E0895AA93A881AA30B9
:1001F80011F0791450F0E0E0EA936394A62DDCDF67
:10020800A881AA3011F40C9452017394A89AA88179
:10021800C6DFA8980C945201BA93AA931A930E9425
:100228006E0119F0A12FE1DFFACF0C945F01AA93B8
:10023800E4B3E06FE4BBA29AA09AA19AAA98A898FE
:10024800A9989880E881E058E0937E02E881E0541C
:10025800E0937F02A4E1B0E00E947E010E94760153
:100268000E9476010E947601A0E284DF88EC90E08B
:100278000197F1F7A8E293DFA4E091DFA5E88FDF0B
:10028800A6E08DDFA6DF0C9452015F9BFECFECB198
:100298000895AA935D9BFECFE881ECB92196089555
:1002A800BA93AA931A930E946E0119F0A12FF1DF55
:1002B800FACFAAE0EEDF188123960895AAE00E94FB
:1002C8004D01ADE00C944D010E94D300A3E0B0E0D5
:1002D8000C947E01A981BA81ED91A983BA831E2F5E
:1002E800E0300895A0E30E94BE0088EC90E00197FA
:1002F800F1F70895109639F080ED97E00197F1F73E
:10030800A8951197C9F7089500240A160B060895B1
:00000001FF
