:020000000C945E
:1000020032000C9400000C9400000C9400000C943C
:1000120000000C9400000C9400000C94A8000C94B6
:1000220000000C9400000C9400000C9400000C944E
:1000320000000C9400000C9400000C9400000C943E
:1000420000000C9400000C9400000C9400000C942E
:1000520000000302080500000180080004005400AB
:100062000000F894EE27ECBBF1E0FBBFEBBFE5BF6D
:10007200F8E1F1BDE1BD8DE0A2E0BB27ED938A95E9
:10008200E9F780E098E0A0E6ED930197E9F7ECE567
:10009200F0E085919591009761F0A591B591059059
:1000A2001590BF01F00105900D920197E1F7FB0158
:1000B200F0CFEFE5EDBFE8E0EEBFC0E6D2E00C9492
:1000C200EF00AA93E881F0E0E130A0E0FA0719F42A
:1000D200E6E0F0E03AC0E230A0E0FA0719F4EBE51E
:1000E200F0E033C0E330A0E0FA0719F4EFE4F0E007
:1000F2002CC0E430A0E0FA0719F4E6E6F0E025C0EF
:10010200E530A0E0FA0719F4EDE6F0E01EC0E630B3
:10011200A0E0FA0719F4EDE7F0E017C0E730A0E03D
:10012200FA0719F4E7E0F0E010C0E830A0E0FA07BF
:1001320019F4EFE7F0E009C0E930A0E0FA0719F49A
:10014200EFE6F0E002C0EFE3F0E0219608950A92B4
:100152001A929A93AA93BA93EA93FA93EFB7EA930D
:10016200AA0CAA2011F4E1E0AE2E8394A82DBB279D
:10017200E2E0F0E00E946B01309711F0BB2402C074
:10018200E0E8BE2EEAE0E81511F488249394E6E054
:10019200E91511F499246394EAE0E61511F4662452
:1001A2007394E6E0E71511F477244394EAE0E4154A
:1001B20011F444245394E2E0E51519F4E4E0E41563
:1001C20009F002C044245524E991EFBFF991E99165
:1001D200B991A9919991199009901895E0E0EABB1B
:1001E200EBBBEFEFE7BBE0E0E8BBEFEFE4BBE0E047
:1001F200E5BBEFEFE1BBE0E0E2BBE3BFE2BFECBF98
:10020200EFBDECE0EEBDE0E0EDBDECBDE7BDE6BD6F
:10021200EAE7EBBDE2E1EABDE0E0E9BDE8BDE2BD4F
:10022200E5BDE4BDE3BDE0E1E9BFE0E0E5BFE4BF79
:10023200EAB9E0E8E8B9E0E0E0BFE6B9EDB9E6BF67
:100242007894A8BAEEEFE2BBA52D16D0EDEFE2BB93
:10025200A42D18D0EBEFE2BBA72D0ED0E7EFE2BB47
:10026200A62D10D0EFEEE2BBA92D06D0EFEDE2BB3A
:10027200A82D08D0E6CFFFCF24DFE5BBA5E0B0E094
:100282000C944A011EDFEB29E5BBA5E0B0E00C941B
:100292004A01109639F080ED97E00197F1F7A895A1
:1002A2001197C9F70895F195E195F040089500245A
:1002B200112490E1AA0FBB1F001C111C0E1A1F0A69
:1002C20018F40E0E1F1E01C0A1609A9599F7FD0148
:1002D200D0010895E894B7FF04C0A095B095119697
:1002E2006894F7FDE0DFE3DFFD010EF4DCDF089543
:00000001FF
