:0C0000000C9452000C9400000C940000C2
:10000C000C9400000C9400000C9400000C94000064
:10001C000C9400000C9400000C9400000C94000054
:10002C000C9400000C9400000C9400000C94000044
:10003C000C9400000C9400000C9400000C94000034
:10004C000C9400000C940000FFFFFFFFFFFFFFFF6C
:10005C00FFFFFFFFFFFFFFFF0703D9DCD90307FFFB
:10006C0000006E6E6E6E11FFC3813C7E7E7EBDFF06
:10007C0000007E7E7EBDC3FF0000767676767EFF26
:10008C000000F6F6F6F6FEFFFFFFFFFFFFFFFFFF97
:10009C00FFFFFFFFFFFFFF00F894EE27ECBBF1E042
:1000AC00FBBFEBBFE5BF8DE0A2E0BB27ED938A95CC
:1000BC00E9F780E098E0A0E6ED930197E9F7EFE52A
:1000CC00EDBFE8E0EEBFC0E6D2E00C946D00E0E0DE
:1000DC00EBBBEABBE8BBEFEFE7BBE0E0E5BBEFEF68
:1000EC00E4BBE0E0E2BBEFEFE1BBE0E0E3BFE2BF8B
:1000FC00ECBFEFBDEEBDEDBDECBDE7BDE6BDEBBDB0
:10010C00EABDE9BDE8BDE2BDE5BDE4BDE3BDE5BFCB
:10011C00E4BFE9BFE0E8E8B9E0E0E0BF58E05834FC
:10012C0058F530E0353030F501E010E0183000F5CE
:10013C00E52FE10F2E2F08BBF0E0EC5AFF4F049097
:10014C0005BAA4E0B0E00E94C400E0E0E8BB02BB4A
:10015C00E22FF0E03897EC5AFF4F049005BAA2E07A
:10016C00B0E00E94C400E0E0E2BB000F1F5FDECFF6
:10017C003F5FD8CF5F5FD3CFD1CFFFCF109639F091
:10018C0080ED97E00197F1F7A8951197C9F70895BD
:00000001FF
