:100000000C9438000C9400000C9400000C94000038
:100010000C9400000C9400000C9400000C94000060
:100020000C9400000C9400000C9400000C94000050
:100030000C9400000C9400000C9400000C94000040
:100040000C9400000C9400000C9400000C94000030
:100050000C9400001027E80364000A00010000105F
:100060000001100001000000020006006600000010
:10007000F894EE27ECBBF1E0FBBFEBBFE5BF8DE0F2
:10008000A2E0BB27ED938A95E9F780E098E0A0E62F
:10009000ED930197E9F7E8E6F0E0859195910097F7
:1000A00061F0A591B59105901590BF01F001059003
:1000B0000D920197E1F7FB01F0CFEFE5EDBFE8E02E
:1000C000EEBFC0E6D2E00C94D800AA93E881E030FD
:1000D00011F4EFE36BC0A881A13011F4E6E066C033
:1000E000A881A23011F4EBE561C0A881A33011F41E
:1000F000EFE45CC0A881A43011F4E6E657C0A88103
:10010000A53011F4EDE652C0A881A63011F4EDE758
:100110004DC0A881A73011F4E7E048C0A881A830FD
:1001200011F4EFE743C0A881A93011F4EFE63EC017
:100130003DC0AA93A881A03319F4A0E0C6DFE5BBB7
:10014000A881A13319F4A1E0C0DFE5BBA881A233E7
:1001500019F4A2E0BADFE5BBA881A33319F4A3E048
:10016000B4DFE5BBA881A43319F4A4E0AEDFE5BB9E
:10017000A881A53319F4A5E0A8DFE5BBA881A633C3
:1001800019F4A6E0A2DFE5BBA881A73319F4A7E024
:100190009CDFE5BBA881A83319F4A8E096DFE5BB96
:1001A000A881A93319F4A9E090DFE5BB2196089551
:1001B000E0E0EBBBEABBEFEFE8BBE7BBE5BBE4BBD2
:1001C000E0E0E2BBE1BBE3BFE2BFECBFEFBDEEBDF1
:1001D000EDBDECBDE7BDE6BDEBBDEABDE9BDE8BDEB
:1001E000E2BDE5BDE4BDE3BDE5BFE4BFE9BFEBB9FA
:1001F000E8E1EAB9E6E8E0BDE0E0E0BDE3E3E9B963
:10020000E0E8E8B9E0E0E0BFE6B9EDB9E6BF4CD020
:100210005E2EF301E05AFD4F5082E6E0F0E0E61575
:10022000F70511F466247724F30131963F01002489
:10023000061407042CF4EFEBE8BBA091600279DF11
:10024000E1E0F0E0E615F7052CF4EFEDE8BBA09156
:1002500061026FDFE2E0F0E0E615F7052CF4EFEE67
:10026000E8BBA091620265DFE3E0F0E0E615F70588
:100270002CF4E7EFE8BBA09163025BDFE4E0F0E081
:10028000E615F7052CF4EBEFE8BBA091640251DF13
:10029000E5E0F0E0E615F7052CF4EDEFE8BBA09102
:1002A000650247DFB4CFFFCF5F9BFECFECB108956F
:00000001FF
