:0E0000000C9441000C9400000C9400000C9431
:10000E0000000C9400000C9400000C9400000C9462
:10001E0000000C9400000C9400000C946E000C94E4
:10002E0000000C9400000C9400000C9400000C9442
:10003E0000000C9400000C9400000C9400000C9432
:10004E0000000C94000030313233343536373839F5
:10005E004142434445463F065B4F666D7D077F6FC9
:10006E00777C395E797110006002540010007002C6
:10007E0064000000F894EE27ECBBF1E0FBBFEBBF91
:10008E00E5BF8DE0A2E0BB27ED938A95E9F780E00E
:10009E0098E0A0E6ED930197E9F7E4E7F0E08591AB
:1000AE009591009761F0A591B59105901590BF01BE
:1000BE00F00105900D920197E1F7FB01F0CFEFE50E
:1000CE00EDBFE8E0EEBFC0E6D2E00C948100EA930B
:1000DE00FA93EFB7EA93F20131962F01E2E0F0E0E6
:1000EE00E415F50511F444245524E991EFBFF99177
:1000FE00E9911895E0E0E5BBE2BBEFEFE4BBE7BBAF
:10010E00E0E0E1BBECE0E3BFE0E0E2BFE3E6ECBF42
:10011E00E2E1E9BF78942897E0E0E883E983EA8397
:10012E00EB83EC83ED83EE83EF83809B05C0EE8142
:10013E00FF813196EE83FF83819B05C0EE81FF81A7
:10014E003296EE83FF83829B05C0EE81FF8134964B
:10015E00EE83FF83839B05C0EE81FF813896EE838D
:10016E00FF83849B05C0EE81FF817096EE83FF8333
:10017E00859B05C0EE81FF81B096EE83FF83869B43
:10018E0006C0EE81FF81E05CFF4FEE83FF83879B0D
:10019E0006C0EE81FF81E058FF4FEE83FF83EE81B4
:1001AE00FF813097D9F0EF70F070EC83FD83EA8118
:1001BE00FB81DE01AE0FBF1FEC81FD81E05AFD4FCA
:1001CE00E081EC93EE81FF810E946601EE83FF8356
:1001DE00EA81FB813196EA83FB83E1CF042C05286B
:1001EE0049F5EDEFE8BBE88159D0A881A13419F4A7
:1001FE00E0917A021DC0A881A23419F4E0917B022D
:10020E0017C0A881A33419F4E0917C0211C0A88113
:10021E00A43419F4E0917D020BC0A881A53419F421
:10022E00E0917E0205C0A881A63419F4E0917F0208
:10023E00E5BB2DC0E1E0F0E0E415F50541F5EEEF8C
:10024E00E8BBE9812BD0A981A13419F4E0917A029F
:10025E001DC0A981A23419F4E0917B0217C0A981B7
:10026E00A33419F4E0917C0211C0A981A43419F4CD
:10027E00E0917D020BC0A981A53419F4E0917E02B4
:10028E0005C0A981A63419F4E0917F02E5BBA5E073
:10029E00B0E00E945C0128963ECFFFCFF0E0F097D1
:1002AE00E059FD4FE081E5BB0895109639F080EDE1
:1002BE0097E00197F1F7A8951197C9F70895F6956C
:1002CE00E795F695E795F695E795F695E7950895F2
:00000001FF
