:060000000C943C000C947E
:1000060000000C9400000C9400000C9400000C946A
:1000160000000C9400000C9400000C9400000C945A
:1000260000000C9400000C9400000C9400000C944A
:1000360000000C9400000C9400000C9400000C943A
:1000460000000C9400000C9400000C940000FF814A
:10005600EEEEEE81FF80BFBFBFBFFFFFBE80BEFFDB
:10006600FFFFFFFFFFFFFFFFFFFFFFFFFFFFFFFF9A
:10007600FF00F894EE27ECBBF1E0FBBFEBBFE5BF5A
:100086008DE0A2E0BB27ED938A95E9F780E098E042
:10009600A0E6ED930197E9F7EFE5EDBFE8E0EEBFE7
:1000A600C0E6D2E00C945700EFEFEABBE0E0EBBB12
:1000B600EFEFE4BBE0E0E5BBEFEFE1BBE0E0E2BB86
:1000C6002497E2E1E883E0E0E983A881B981D59746
:1000D600A8F52297E0E0E883E983A881B98115971E
:1000E60054F52497E1E0E883E0E0E983EA83EB83D3
:1000F600EBBBE887E987A885B985189728F4E881D6
:10010600E2BB1FD03AD0F7CFE0E0E2BBE8E0F0E098
:10011600E887F987A885B985509750F4A881B981F1
:100126008A819B81E8E035D0EBBB0BD026D0F2CF9D
:10013600249629D0D2CF229626D0C7CF2496C0CFD8
:10014600FFCFE885F985AE81BF81AE0FBF1FE3E221
:10015600F0E049D0EC5AFF4F049005BAE881F981E6
:100166006A817B81EE0FFF1F661F771FE883F98385
:100176006A837B83A2E0B0E039C0E885F9853196D1
:10018600E887F9870895E881F9813196E883F9834C
:100196000895EE230E2EE8E01E2EFD01BC0179F037
:1001A600011438F0EF2FF62F672F70E00118C1F712
:1001B600089576956795F795E7950A94D1F708958A
:1001C6000024112490E1AA0FBB1F001C111C0E1A5B
:1001D6001F0A18F40E0E1F1E01C0A1609A9599F70A
:1001E600FD01D0010895ECDFFD010895109639F068
:1001F600A89580ED97E00197F1F71197C9F7089553
:00000001FF
