:100000000C9444010C9400000C9400000C9400002B
:100010000C9400000C9400000C9400000C94000060
:100020000C9400000C9400000C9400000C94000050
:100030000C9400000C9400000C9400000C94000040
:100040000C9400000C9400000C9400000C94000030
:100050000C94000005072060000000000000005F15
:1000600000000007000700147F147F14242A7F2A51
:10007000122313086462364955225000050300001C
:10008000001C2241000041221C00082A1C2A0808EA
:10009000083E080800503000000808080808003032
:1000A00030000020100804023E5149453E00427FC6
:1000B000400042615149462141454B311814127F9D
:1000C0001027454545393C4A494930017109050326
:1000D0003649494936064949291E0036360000008E
:1000E000563600000008142241141414141441223E
:1000F0001408000201510906324979413E7E11116E
:10010000117E7F494949363E414141227F4141228A
:100110001C7F494949417F090901013E4141513252
:100120007F0808087F00417F41002040413F017F58
:10013000081422417F404040407F0204027F7F0438
:1001400008107F3E4141413E7F090909063E415169
:10015000215E7F09192946464949493101017F013C
:10016000013F4040403F1F2040201F7F2018207F3C
:100170006314081463030478040361514945430080
:10018000007F4141020408102041417F0000040229
:100190000102044040404040000102040020545449
:1001A00054787F48444438384444442038444448D0
:1001B0007F3854545418087E090102081454543CE2
:1001C0007F0804047800447D40002040443D000046
:1001D0007F10284400417F40007C041804787C088C
:1001E00004047838444444387C1414140808141463
:1001F000187C7C080404084854545420043F4440AC
:10020000203C4040207C1C2040201C3C4030403C96
:1002100044281028440C5050503C4464544C440032
:100220000836410000007F0000004136080002014E
:100230000204027F4141417F000103070F1F3F7FFE
:10024000FF003F001F00000004005A616872612037
:10025000486F737365696E690039363533313232F0
:10026000360001002D4E414E00494E460000080068
:10027000040042020F0060024A0209006F025902A4
:100280000100980262020000F894EE27ECBBF1E056
:10029000FBBFEBBFE5BF8DE0A2E0BB27ED938A95E6
:1002A000E9F780E098E0A0E6ED930197E9F7EEE644
:1002B000F2E085919591009761F0A591B591059037
:1002C0001590BF01F00105900D920197E1F7FB0138
:1002D000F0CFEFE5EDBFE8E0EEBFC0E6D2E00C9472
:1002E000710126970CED15E0E4E5F0E0E883F98371
:1002F000DE0168D1CCD1A2E3B0E00E94A50BE0E022
:10030000EA93EA93A0E6B2E00E94DD06E0E0EA9319
:10031000E5E3EA93AFE6B2E00E94DD06D8010E9471
:10032000A50BB5D1E2E0E0938002EFEFE09381020C
:10033000E7E3EA93EFE3EA93EBE5EA93AFE30E94A6
:100340001A07EBE5EA93EFE30E94800AE7E3EA93FA
:10035000EFE3EA93E7E30E94860AE7E3EA93E0E249
:10036000EA93EDE20E94860AE5E6EA93E0E20E9463
:10037000800AE9E4EA93E0E0EA93E5E60E94860A6F
:10038000E9E4EA93E0E0EA93EBE3EA93AEE00E946B
:100390001A07E4E3EA93E6E1EA93EDE20E94860AB3
:1003A000E4E3EA93E6E1EA93E4E30E948A0AEEE0FA
:1003B000EA93EBE30E948A0AE7E0EA93EEE3EA932A
:1003C000A7E00E941A07E4E3EA93E7E0EA93E1E397
:1003D000EA93A7E00E941A07EEE3EA93E7E00E949F
:1003E000910AE1E3EA93E7E0EA93E1E3EA93A3E029
:1003F0000E941A07E1E3EA93E3E00E94910AD80120
:100400000E94A50B44D1E0E00E94970A09D0E1E0E8
:100410000E94970AA2E3B0E00E94A50BF4CFFFCFA1
:10042000082C092881F46A187B080E949E0A1CF097
:10043000E3E0F0E04F01D3010E94A70A1CF0E1E0E5
:10044000F0E04F013FC0E1E0F0E0E815F90581F48C
:100450006A0C7B1C0E949E0A1CF0E2E0F0E04F0157
:10046000D501A60DB71DDF9714F0882499242AC062
:10047000E2E0F0E0E815F905A1F46A0C7B1C4A18EB
:100480005B08D2010E94A70A1CF0E1E0F0E04F01F6
:10049000D501A60DB71DDF971CF0E3E0F0E04F019A
:1004A00011C06A187B084A185B08D2010E94A70A8B
:1004B00014F088249924D3010E94A70A1CF0E2E0DA
:1004C000F0E04F0108950000C09A00000895C09820
:1004D000C498C59808951A93F6DF19B3C098E12F10
:1004E00019910895AA931A93E0E0EABBC19AC298C1
:1004F000E981EF5F1E2F10FF02C0C49A01C0C498AB
:1005000011FF02C0C59A01C0C598E5DFE078E9F7A0
:1005100018811FC1AA93A981E5DF0E94AC0A19C105
:10052000E0919602EA93E0919502EF73E064AE2FBA
:10053000F1DFE0919602EA93E0919702E86BAE2F2B
:10054000E9DF0895AA93E981E0939502E295EF70BF
:10055000E695E695E0939602E881E0939702E0DF66
:10056000F8C0A0919502AF5FA0939502A03818F053
:10057000E0E0E0939502E0919502EF7331F4E091B1
:100580009502EA93A0919702DDDF0895AA93A091C6
:100590009602A8DFC29A0E94AC0A21960895A09103
:1005A0009602A0DFE0E0EABBC19AC29A94DF089508
:1005B000AA93E981EA93E9810E94B50AF0DFB0DFEE
:1005C000EEDFC7C0BA93AA931A93B89AB99ABA9AA7
:1005D000BB9AC39ABC9ABD9A7ADFC398A4E6B0E0EE
:1005E0000E94A50BC39A10E0123040F41A93AFE3B7
:1005F00091DF1A931395A0EC8DDFF6CFE1E0E09345
:100600007802E0E0E0937902E981FA813097A9F07D
:10061000A981BA810E94D50BE0937C02F0937D0200
:1006200012960E94D50BE0939102F0939202A98159
:10063000BA8114960E94D50B0AC0E0E0F0E0E09386
:100640007C02F0937D02E0939102F0939202E0939A
:100650009302F0939402E1E0E0937E02E0937F0244
:10066000E0938002EFEFE0938102E1E0E093880203
:10067000E9E8F2E0FA93EA93EFEFEA93A8E0B0E05A
:100680000E94FF0904D0E1E01881239608950E949A
:10069000FC0B00E030E0E0917902E03009F00FEF70
:1006A000383078F4E0E0EA93A32F3F5F4BDF10E0AF
:1006B000A12F1F5FA03820F4A02F0E94BB0AF8CF03
:1006C000EFCFE0E0EA93A0E03DDFE0E0EA93A0E0D6
:1006D000A4D30E94030C24960895AA931A930A9314
:1006E000AC81A03818F4AB81A03408F016C0EC81BE
:1006F000EA93AC815DDF1E2F13DFEB81E770A1E091
:100700000E94B30B0E2FEA81E03011F0102B03C0D2
:10071000E02FE0951E23A12F39DF1981088125964E
:100720000895AA93A981A03818F4A881A03410F0E4
:10073000E0E00FC0E981EA93A9813ADF1E2EE8814B
:10074000E770A1E00E94B30BE12111F0E1E001C0EC
:10075000E0E022960895AA931A93ED81EA93AD8181
:1007600027DF1E2FDDDEE981E73011F0E83039F4B4
:10077000EB81EA93AA810E941A0AEB8308C0E33056
:1007800021F4EB81E095EB8302C0E03021F4EA81B3
:10079000E0951E2302C0E23029F4EA81AB81EA230E
:1007A0001E2B0EC0E13029F4EA81AB81EA231E271B
:1007B00007C0E43029F4EA81E095AB81EA2B1E23DF
:1007C000A12F0E94BB0A188126960895AA93239709
:1007D0000E94FA0BA889A03848F4AF85A03430F401
:1007E000AE85A03019F0AD85A03009F4C8C1EE8502
:1007F000E887A889BB27EE85F0E0AE0FBF1FA138C0
:10080000E0E0BE0720F0A889E0E8EA1BEE872D852E
:10081000AF85BB27ED85F0E0AE0FBF1FA134E0E050
:10082000BE0720F0AF85E0E4EA1BED87A985A6307E
:1008300009F05BC0EC85E13009F4A1C1E33039F483
:10084000E0919302F0919402309709F498C10885E1
:10085000ED85E695E695E6953E2FE22FE77019F4D3
:10086000AD852A17E9F0A02FBB27E32FF0E00E9407
:10087000CD0BAA85BB850E94BF0A26952695269595
:10088000532F5F935F5FE22FAF91EA1748F0102F6D
:10089000E12F1150E03019F00E94C40AF9CFF1CFD6
:1008A000AE850A1711F1EE85AA85BB85F0E00E949E
:1008B000BF0AED85E77009F03F5F20E02F932F5FBF
:1008C000E32FAF91AE1788F41E851F931F5FE02FB3
:1008D000AF91AE1718F40E94C40AF7CFEE85AE812F
:1008E000BF81F0E00E94BF0AE9CFEF85E7703E2F9D
:1008F000ED85E03009F443C1EA85FB85EE83FF8393
:1009000010E00889303009F065C0AD85A83008F4E2
:100910005CC0E985E03011F0E33009F402C0E73053
:1009200009F402C0E83009F402C0E63009F402C05C
:10093000E93009F402C0EA3021F40A93E8890E9400
:10094000B50A1F931F5FEE85AF91AE17B8F5A98565
:10095000A63061F424DEE4DD0E94D10AFA93EA9322
:100960001EDEAE2F0E94610AFCDD27C0E985E9305A
:1009700011F450E00EC0EA3011F45FEF0AC00E949B
:10098000D10A0E94DA0A5E2FE985E73011F0E830DB
:1009900021F40E94E00A5E2F06C0E33011F4509566
:1009A00002C0E03021F4A52F0E94BB0A06C00E94BD
:1009B000E40AEFEFEA93AD85CEDEC3CFEF85E85FC3
:1009C000EF87ED85E850ED87D1C05D8520E0E0E060
:1009D000ED877AC0E32FAD85AE0FA93020F42D85C9
:1009E000E0E0ED8703C0E8E0E31B2E2F3A93A22F4F
:1009F0000E940F0A4E2FE985E630F1F41F931F5F26
:100A0000EE85AF91AE17B8F40E94EA0AAE2FE32F3D
:100A10000E94BB0B0E94F10AE32FA42F0E94BB0B84
:100A2000E095E1215E2B0E94D10AFA93EA93A52F6B
:100A30000E94610AE3CF2CC0E93011F450E003C0FA
:100A4000EA30A9F45FEF0E94E00AAE2FE32F0E9484
:100A5000B30B5E2F1F931F5FEE85AF91AE1730F47F
:100A60000E94E40A4A93A0E076DEF4CF11C01F93FF
:100A70001F5FEE85AF91AE1758F40E94FC0AAE2FAF
:100A8000E32F0E94B30BEA934A93AD8564DEEFCF68
:100A9000ED85E03009F473C0AD85A83028F4ED850C
:100AA000E21B5E2FE0E003C0532FED85E850ED8799
:100AB00010E0EF85E85FEF87E8E0E31B2E2F088961
:100AC000EA85FB85EE83FF83E52FF0E0E85CFD4FD0
:100AD0004491E985E630F1F41F931F5FEE85AF91F5
:100AE000AE17B8F40E94EA0AAE2FE22F0E94B30BB1
:100AF0000E94F10AE22FA42F0E94B30BE095E1219E
:100B00005E2B0E94D10AFA93EA93A52F0E94610AF4
:100B1000E3CF2CC0E93011F450E003C0EA30A9F46F
:100B20005FEF0E94E00AAE2FE22F0E94BB0B5E2F08
:100B30001F931F5FEE85AF91AE1730F40E94E40A59
:100B40004A93A0E008DEF4CF11C01F931F5FEE852B
:100B5000AF91AE1758F40E94FC0AAE2FE22F0E940C
:100B6000BB0BEA934A93AD85F6DDEFCFE885AA8506
:100B7000BB85F0E0EA0FFB1FEA87FB87B9CE0E9436
:100B8000010C619608950E94090B24F0E0E0F0E06A
:100B90000C94180AA881B981A038E0E0BE0724F0BF
:100BA000EFE7F0E00C94180AE881F9810C94180A38
:100BB0000E94090B24F0E0E0F0E00C94180AA881F0
:100BC000B981A034E0E0BE0724F0EFE3F0E00C943C
:100BD000180AE881F9810C94180AAA93E981EA932A
:100BE000E981EA93A091780278DD0C94180ABA930F
:100BF000AA9323970E94100B8F01002E012A19F44B
:100C0000E0E0F0E05FC00E94170B0F820E94170B1C
:100C10000E820E94170B0886EB85A885EA1718F448
:100C2000E0E0F0E04FC0F8010F5F1F4F5491A8853E
:100C3000BB27EE27A50FBE1FEB85F0E0EA17FB07E9
:100C400018F0E0E0F0E03EC0EE81E695E695E6952E
:100C50004E2FEE81E77009F04F5FEF81E030A1F099
:100C6000A985BA85EC93A885EB85EA1BF0E0DF0146
:100C7000EF81F0E00E94CD0BDF01E42FF0E00E9455
:100C8000CD0BE00FF11F1EC09801E52FF0E00E0F15
:100C90001F1FA885AF5FA887A150EB85AE1760F432
:100CA000F9012F5F3F4FA491B0E0E42FF0E00E94E4
:100CB000CD0B0E0F1F1FEDCFF901E491A985BA8569
:100CC000EC93F8010E94010C2C960895E0E0E0936B
:100CD0007A02A0917B02BB270E941C0BF0E0AE0FB2
:100CE000BF1FE0917F02F0E0AE0FBF1F61DFE09316
:100CF0007B020895AA9321970E94100B309709F464
:100D000057C0AF81AA3009F44FC0EF81EA93DE01EA
:100D100017966DDFAF01309719F40E94010C06C3DE
:100D2000E0917E02AE81EA0F3E2FA0917A02BB27AE
:100D30000E94230B0138E0E01E0718F0032F112753
:100D4000C5DFE0917A02EA93E0917B02EA93E885BD
:100D5000EA930E941C0BEA93E1E0EA935A934A93C8
:100D6000A7E034DDE0917A02AE81EA0FEA93E091E8
:100D70007B02EA93E0917E02EA930E941C0B0E94A0
:100D8000280BE0917A02EA93A0917B020E941C0B4F
:100D9000EA0FEA933A93E0917F020E94280BE0E881
:100DA000F0E0E017F10721F491DF0E94010CBEC2D0
:100DB00000937A020E94010CB9C2BA93AA931A93C3
:100DC000EC81EA93AC8129D0A981BA81ED91A98304
:100DD000BA831E2FE03019F0A12F8CDFF5CF1881D8
:100DE0000C940D0AAA93EA81EA93EA81EA93E091CE
:100DF0008102AA81EA2319F0E091780202C0E09111
:100E00007902AE2F6ADCE881EE0FE883E03011F45E
:100E1000E1E0E883E8810C945F0AAA93A981BB27EB
:100E2000B2DEE0937A02A881BB27C2DEE0937B02A8
:100E30000C94180AAA932B970E94FA0BAC89BB2733
:100E4000A2DEEC8BAA89BB279EDEEA8BAB89BB278F
:100E5000AFDEEB8BA989BB27ABDEE98BEA89E09398
:100E60007A02E989E0937B02E1E0E887E989AB89CE
:100E7000EA1771F51C89AA891A1731F41A93EC89BB
:100E8000EA93A1E0AFDFC8C0AA891A1730F4EA8953
:100E9000E11B0E2F41E050E006C0AA89E12FEA1BBA
:100EA0000E2F4FEF5FEF3B89E0E0EE830E94320BA5
:100EB00038F41A933A933395AA8594DFEF83F6CFEB
:100EC000EF81E887140FE02F0150E03061F7A4C0F4
:100ED000EA89AC89EA1739F53B89A9893A1730F4D0
:100EE000E989E31B2E2FE1E0F0E006C0A989E32F9A
:100EF000EA1B2E2FEFEFFFEFED87FE871C89E0E066
:100F0000EE830E94320B30F41A9313950E943A0B31
:100F1000EF83F7CFEF81E887ED853E0FE22F215079
:100F2000E03061F779C0E0E0EE830E94320B08F018
:100F300073C01C893B89E1E02E2F0E2FAA89BB27A5
:100F4000EC89F0E0AE1BBF0BAD0155232AF40FEF87
:100F5000FA010E94AF0BAF01FA01EE0FFF1FEF87FE
:100F6000F88BA989BB27EB89F0E0AE1BBF0BAD87DF
:100F7000BE87AE85AA233AF42FEFED85FE850E9449
:100F8000AF0BED87FE87ED85FE85EE0FFF1FEB872C
:100F9000FC871A933A93A1E025DFE887E0E0E98730
:100FA000EA87AD85BE854A175B07BCF0100FEB855D
:100FB000FC850E943E0BA985BA854A175B072CF475
:100FC000320FAF85B8890E94450B1A930E943A0BE5
:100FD000E887EA89E11751F718C0320FEF85F889E1
:100FE0000E943E0BED85FE85A985BA85EA17FB07B1
:100FF0002CF4100FAB85BC850E94450B1A930E9400
:101000003A0BE887E989E31741F7EB89EF5FEB8B50
:10101000E989EF5FE98B89CF0E94010C65960895FD
:10102000BA93AA9323970E94FA0BED85E887E09183
:101030008002EF83E0917802EE83AA89BB27EF85D7
:101040000E94230BA989BB27E8890E944C0BE889E1
:101050000E94530B71F0E885E078F1F4AD85BE8510
:10106000EAE5F0E00E945B0B1CF00E94640B0CF4BC
:1010700013C0332312F00E94690BAF81A23020F01D
:101080002230E0E03E070CF407C00E946D0B21F413
:101090000A93A22FA150A1DDE885E878E83891F005
:1010A000E885E078C9F4AD85BE85A25FBE4F0E9499
:1010B000760B3CF0AD85BE85A25FBE4F0E947B0BD8
:1010C0000CF40AC00E94800B38F00E94870B21F4B8
:1010D0000A93A42FAF5F81DDAA89BB27EF85F0E0DB
:1010E000AE1BBF0B8D0111230AF445C0E885E278E1
:1010F000E23891F0E885E07811F5AD85BE85A65A15
:10110000BF4F0E94760B3CF0AD85BE85A65ABF4FFF
:101110000E947B0B0CF413C0332312F00E94690B66
:10112000AF81A23020F02230E0E03E070CF407C08F
:101130000E946D0B21F40A93A22FA1504EDDE88589
:10114000E478E43871F0E885E078A9F4AD85BE85EF
:10115000EEE0F1E00E945B0B1CF00E94640B0CF4CB
:101160000AC00E94800B38F00E94870B21F40A937A
:10117000A42FAF5F32DDAA89BB27E8890E94230B29
:10118000A989BB27EF850E944C0BEF850E94530B6A
:1011900081F0E885E078F1F4EB85FC85AD85BE85CE
:1011A000AE17BF072CF0E985FA85EA17FB070CF4A8
:1011B00011C033237AF00E94690BAF81A23050F046
:1011C000E02FEE5F0E94900B29F4E02FEF5FEA938F
:1011D000A22F03DDE885E878E83871F0E885E0784B
:1011E000C1F4AD85BE85E8E6F1E00E945B0B1CF022
:1011F0000E94640B0CF40DC00E94800B50F0E02F95
:10120000EE5F0E94980B29F4E02FEF5FEA93A42F82
:10121000E4DCAA89BB27E889F0E0AE1BBF0B8D0197
:1012200011230AF450C0E885E278E23871F0E885CD
:10123000E07809F5AD85BE85E4EBF0E00E945B0B3C
:101240001CF00E94640B0CF416C03323A2F00E9421
:10125000690BAF81A23020F00230E0E01E070CF4F1
:101260000AC0E02FE2500E94900B29F4E02FE150D9
:10127000EA93A22FB2DCE885E478E43891F0E885BF
:10128000E07809F5AD85BE85AC54BF4F0E94760B62
:101290003CF0AD85BE85AC54BF4F0E947B0B0CF477
:1012A00012C00E94800B20F00230E0E01E070CF418
:1012B0000AC0E02FE2500E94980B29F4E02FE15081
:1012C000EA93A42F8ADC0E94010C63960895AA93E6
:1012D0000E94FC0BAF81BB27ED81F0E0AE1BBF0B82
:1012E00052DC1E2FAF81BB27ED81F0E0AE0FBF1F98
:1012F0004ADC0E2FAE81BB27EC81F0E0AE1BBF0BAA
:1013000057DC3E2FAE81BB27EC81F0E0AE0FBF1F54
:101310004FDC2E2F1A933A930A93A32F8BDD1A9347
:101320002A930A93A22F86DD0E94030C2896089523
:10133000AA930E94FA0BA985A03818F4A885A034B6
:1013400008F04FC050918002E52F5150E03009F471
:1013500048C0EF81E03009F444C0EF81E150EF83F1
:10136000EF5F0E2FF0E0A5E0B0E0AE1BBF0BFD017C
:101370000E94C30B0E94C80B9F0110E0AE81A034F5
:1013800059F40E94A00B1A93A02FA1DF0E94A00B7A
:101390000A93A12F9CDF0FC00E94A00B1A930A93FF
:1013A000EA85F0E0FA93EA93E0E0F0E0FA93EA935A
:1013B000A0E0B0E035DE1F5F33231AF4E12FF0E048
:1013C00008C00150A12FBB27E02FF0E0AE1BBF0BE0
:1013D000FD01EE0FFF1F31962E0F3F1F011770F614
:1013E000B3CF0E94010C2A960895AA93EA81EA934A
:1013F000EA81EA93EA81EA93AFE89ADF60C0BA93A0
:10140000AA93B981A881109631F0FC81EB816A81A1
:1014100061931197E9F7EB81FC8125960895AA93D2
:10142000E881F0E0E85CFD4FA491E9810E94B30BF4
:1014300022960895AA931A93E981E73011F0EA30D1
:1014400019F41091780209C0E93019F41091790269
:1014500004C0E830A1F410918802E0917902E030F4
:1014600049F0103019F0EFEF188129C0EA81E095BA
:10147000188125C0103019F4E0E0188120C0EA81FD
:1014800018811DC0BA93AA93EA81E13021F4E88162
:10149000F981E49114C0E23029F4A881B9810E9455
:1014A000D90B0DC0E33041F4A881B981E0919102DC
:1014B000F0919202099503C0A881B981EC9123961D
:1014C0000895AA93EB81E03029F4E881A981BA81DB
:1014D000EC9314C0E23031F4E881A981BA810E9412
:1014E000E50B0CC0E33051F4E981FA81FA93EA93F9
:1014F000AA81E0919302F0919402099524960895AF
:10150000EA93EBE5EA93A0E20C941A07EA93A0E2CF
:101510000C941A07EA93A7E00E941A07EBE3EA93F8
:101520000895EA93EEE3EA93A3E00C941A07E0939C
:1015300078024A926A92A4E00C94F5094A0C5B1C6A
:10154000D501A40DB51DAF37E0E0BE070895AA1977
:10155000BB090E94F60B0895C198EFEFEABBE88142
:10156000EBBB0E9463020C946702E695E695E69554
:10157000AE2F0C94A2020E94C6020C94B102EA0F94
:10158000FB1FEE83FF830895EC85EA93EF81F885D6
:101590003196EF83F8873197FA93EA93A0E00C94A1
:1015A000610AEC85EA93EF81F8853196EF83F8873D
:1015B0003197089566277727DF01CB010C94420A03
:1015C0005A93AA850C941A0A0A930395E889EA9318
:1015D0005A9308950A930395A8890E94D802E42398
:1015E00008955E2FEC85EA93AF81B8858827992707
:1015F0000E94420A1E2E08950A930395E889EA93F1
:10160000EE85EA93E985FA853196E987FA8731977D
:10161000D1CFBA93AA93A881B9810E94F60B0895FD
:101620000E94FA0BE0917C02F0917D020895F8018E
:101630000F5F1F4F04900895E0917C02F0917D02AE
:101640003196E4910895F0E0EA0FFB1F8F010895B1
:10165000EA93E0E0EA93E0E0F0E0FA93EA93A9E0AD
:101660000C94E603AE81AF5FAE83A150E09180029F
:10167000AE1708953A93AA850C94F206A985BA8507
:10168000EA0FFB1FE987FA870895E985FA85EA1BC7
:10169000FB0BE987FA870895F0E0AE1BBF0B9D01B5
:1016A000A989BB270895F0E0EA0FFB1FAF01E88589
:1016B000E178E1380895EA1BFB0B0F01DF01EB85B0
:1016C000FC85AE17BF070895E985FA85E015F10599
:1016D00008950A93A22F0C94ED050A93A22FA2500D
:1016E0000E949103AE2FEE81EA170895EB85FC85E9
:1016F000AE17BF070895E985FA85EA17FB07089535
:101700000A93A42F0E94ED05AF81A23008950A9399
:10171000A42FAE5F0E949103AE2FEE81EA170895C9
:10172000EA93A22F0E949103AE2FEE81EA1708954B
:10173000EA93A42F0E949103AE2FEE81EA17089539
:10174000E985EA93E985EA930895109639F080EDEA
:1017500097E00197F1F7A8951197C9F70895F195CA
:10176000E195F0400895EE230E2EEA2F19F0EE0FCA
:101770000A94E9F70895EE230E2EEA2F19F0E69564
:101780000A94E9F70895EE0FFF1FEE0FFF1F08956B
:10179000F595E795F595E7950895FA9FF02DEB9F60
:1017A000F00DEA9FE02DF10D0895ED91FC91119758
:1017B0000895E199FECFFF93FFB7F894AEBBBFBB8E
:1017C000E09AEDB3FFBFFF910895E19B02C0A89599
:1017D000FCCF9FB7F894AEBBBFBBE09A8DB3E817C0
:1017E00019F0EDBBE29AE19A9FBF089500240A1612
:1017F0000B0608955A934A933A932A931A930A939D
:1018000008955D814C813B812A8119810881089569
:00000001FF
