:080000000C9452000C94000066
:100008000C9400000C9400000C9400000C94000068
:100018000C9400000C9400000C9400000C94000058
:100028000C9400000C9400000C9400000C94000048
:100038000C9400000C9400000C9400000C94000038
:100048000C9400000C9400000C9400001027E803A6
:1000580064000A000100001000011000010054496A
:100068004D453E2000444154453E20003230004971
:100078005553540080C001002D4E414E00494E4654
:100088000000070060026600070067026D000200BA
:1000980078027C0001007E027E000000F894EE27C2
:1000A800ECBBF1E0FBBFEBBFE5BF8DE0A2E0BB27F7
:1000B800ED938A95E9F780E098E0A0E6ED93019743
:1000C800E9F7EAE8F0E085919591009761F0A5914C
:1000D800B59105901590BF01F00105900D9201971B
:1000E800E1F7FB01F0CFEFE5EDBFE8E0EEBFC0E6DA
:1000F800D2E00C947F00E0E0EABBEBBBE7BBE8BBD7
:10010800E4BBE5BBE1BBE2BBE3BFE2BFECBFEFBDD5
:10011800EEBDEDBDECBDE7BDE6BDEBBDEABDE9BD9D
:10012800E8BDE2BDE5BDE4BDE3BDE9BFE5BFE4BFB1
:10013800EAB9E0E8E8B9E0E0E0BFE6B9EDB9E6BF62
:100148000E94A902E0E0EA93EA93A0E097D0A4E134
:100158005AD110D1A0E6B2E034D1E0E0EA93A1E0B0
:10016800FAD0A7E6B2E02DD1E5E0F0E0FA93EA9301
:10017800E4E0F0E0FA93EA93A7E0B0E098D0E6E094
:10018800F0E0FA93EA93E9E0F0E0FA93EA93E8E022
:10019800F0E0FA93EA93ABE0B0E0A2D0E6E0EA93AD
:1001A800A0E0D9D0E52DF0E0FA93EA93D6010E94B9
:1001B8003602D6010E947102E42DF0E0FA93EA9328
:1001C800A0916E02B0916F020E943602A0916E0259
:1001D800B0916F020E947102E72DF0E0FA93EA9362
:1001E800A0917002B09171020E943602A091700233
:1001F800B0917102E6D0E6E0EA93A1E0ACD0E92D37
:10020800F0E0FA93EA93A0917202B09173020E940F
:100218003602A0917202B09173020E947102E82D19
:10022800F0E0FA93EA93A0917402B09175020E94EB
:100238003602A0917402B09175020E947102A4E77F
:10024800B0E0CED0EB2DF0E0FA93EA93A0917602DD
:10025800B09177020E943602A0917602B09177029F
:10026800B0D0E0E0EA93A2E076D0A7E7B0E0B8D05B
:10027800A8EEB3E00E94FA026CCFFFCFAA93EA81FE
:10028800E370EA83E981E03019F0EA81E061EA830A
:10029800E881E03019F0EA81E068EA830E94770299
:1002A800A7E00E94E202AA810E947C02AAC0BA9337
:1002B800AA930E947702A0E00E947C020E9480021A
:1002C8000E9488020E948F020E949502AE2F0E940F
:1002D8006402AC81BD81EC930E94BD02269608950C
:1002E800BA93AA930E947702A3E00E947C020E941C
:1002F8008002AE81BF81EC930E948F02AC81BD81E8
:10030800EC930E948F020E9495020E9488020E942C
:10031800BD0228960895AA93EBB3EF70AE2FE8813B
:10032800E07FEA2BEBBB8DE08A95F1F7DA9A8DE056
:100338008A95F1F7DA988DE08A95F1F791C0AA933A
:10034800A881E9DFE881E295E883A881E4DF85E810
:100358008A95F1F785C0AA93E881F0E0E858FD4F47
:10036800E081A981AE0FEBDFA980E881E0937C02F0
:1003780022960895A2E00E949B02ACE0E0DFA1E093
:100388000E949B02E0E0E0937C02AE2E0895AA93BF
:10039800A881AA3021F0E0917D02AE1660F0E0E07D
:1003A800EA93A0917C02AF5FA0937C02D4DFA8817E
:1003B800AA3009F455C0A394D89AA881C0DFD89868
:1003C8004FC0BA93AA931A93A981BA81ED91A983D0
:1003D800BA831E2FE03019F0A12FD9DFF5CF10C056
:1003E800BA93AA931A93E981FA813196E983FA8339
:1003F8003197E4911E2FE03019F0A12FC8DFF3CF19
:10040800188123960895AA93EAB3E06FEABBD29ABB
:10041800D09AD19ADA98D898D998E881E0937D0251
:10042800E058E0937A02E881E054E0937B02A4E18B
:10043800B0E00E94FA020E94A1020E94A1020E945A
:10044800A102A0E268DF88EC90E00197F1F7A8E24A
:1004580076DFA4E074DFA5E872DFA6E070DF8ADF4C
:1004680021960895BA93AA93A991B991E991F9911E
:1004780030962AF4E095F09531966DE26D93E89404
:1004880080E197E20DD088EE93E00AD084E69927C0
:1004980007D08AE005D06E2F10D066276C93089598
:1004A8006627E817F90720F06395E81BF90BC9F7E9
:1004B800662311F416F008956894605D6D930895AD
:1004C800AA93E881E295EF70AE2FAA0FAA0FEA0F60
:1004D800EE0FA991AF70EA0F08950E94E501ABE60F
:1004E800B0E00C94F4010E94AE02A0ED0C94E2027C
:1004F8000E94E2020C94BD020E94AE02A1ED0E948D
:10050800E202A1E00C94C702AE2F0E946402A88107
:10051800B981EC930895A1E00E94C702AE2F0C9414
:100528006402AA81BB81EC93A0E00C94C7020E94EC
:10053800A301A3E0B0E00C94FA02A0E30E948F01AB
:1005480088EC90E00197F1F70895A898A998A09AE7
:10055800A19815C0A198A098EE270000999B08952E
:10056800989B089504D0A19A02D0A09AE1E06DE08A
:1005780007C0A19AA09A03D0A098F9DFA1986BE1CF
:100588006A95F1F7089578E0A098F1DF989BFECF7F
:10059800EEDF889499990894A09AF1DFEE1F7A9576
:1005A80099F77A2F772311F4A19801C0A19ADFDF78
:1005B800A098E5DFA09ADBDFA198D9CF78E0AA0F51
:1005C80010F4A19801C0A19ADADFA098D0DF989B17
:1005D800FECFCDDFA09A7A9591F7A198C8DFA098B1
:1005E800CEDFE1E09999EE27A09AC1CF109639F0B5
:1005F80080ED97E00197F1F7A8951197C9F708954D
:00000001FF
